{
    "contractName": "BinarySystem",
    "abi": [
        {
            "inputs": [],
            "stateMutability": "nonpayable",
            "type": "constructor"
        },
        {
            "anonymous": false,
            "inputs": [
                {
                    "indexed": true,
                    "internalType": "address",
                    "name": "previousOwner",
                    "type": "address"
                },
                {
                    "indexed": true,
                    "internalType": "address",
                    "name": "newOwner",
                    "type": "address"
                }
            ],
            "name": "OwnershipTransferred",
            "type": "event"
        },
        {
            "stateMutability": "payable",
            "type": "fallback"
        },
        {
            "inputs": [
                {
                    "internalType": "address",
                    "name": "_tokenTRC20",
                    "type": "address"
                }
            ],
            "name": "ChangeTokenOTRO",
            "outputs": [
                {
                    "internalType": "bool",
                    "name": "",
                    "type": "bool"
                }
            ],
            "stateMutability": "nonpayable",
            "type": "function"
        },
        {
            "inputs": [
                {
                    "internalType": "address",
                    "name": "_tokenTRC20",
                    "type": "address"
                }
            ],
            "name": "ChangeTokenPrincipal",
            "outputs": [
                {
                    "internalType": "bool",
                    "name": "",
                    "type": "bool"
                }
            ],
            "stateMutability": "nonpayable",
            "type": "function"
        },
        {
            "inputs": [
                {
                    "internalType": "address",
                    "name": "_tokenTRC20",
                    "type": "address"
                }
            ],
            "name": "ChangeTokenSalida",
            "outputs": [
                {
                    "internalType": "bool",
                    "name": "",
                    "type": "bool"
                }
            ],
            "stateMutability": "nonpayable",
            "type": "function"
        },
        {
            "inputs": [],
            "name": "MIN_RETIRO",
            "outputs": [
                {
                    "internalType": "uint256",
                    "name": "",
                    "type": "uint256"
                }
            ],
            "stateMutability": "view",
            "type": "function"
        },
        {
            "inputs": [],
            "name": "MIN_RETIRO_interno",
            "outputs": [
                {
                    "internalType": "uint256",
                    "name": "",
                    "type": "uint256"
                }
            ],
            "stateMutability": "view",
            "type": "function"
        },
        {
            "inputs": [
                {
                    "internalType": "uint256",
                    "name": "",
                    "type": "uint256"
                }
            ],
            "name": "active",
            "outputs": [
                {
                    "internalType": "bool",
                    "name": "",
                    "type": "bool"
                }
            ],
            "stateMutability": "view",
            "type": "function"
        },
        {
            "inputs": [
                {
                    "internalType": "address[]",
                    "name": "oldNetwork",
                    "type": "address[]"
                }
            ],
            "name": "actualizarNetwork",
            "outputs": [
                {
                    "internalType": "address[]",
                    "name": "",
                    "type": "address[]"
                }
            ],
            "stateMutability": "pure",
            "type": "function"
        },
        {
            "inputs": [
                {
                    "internalType": "uint256",
                    "name": "_value",
                    "type": "uint256"
                }
            ],
            "name": "addPlan",
            "outputs": [
                {
                    "internalType": "uint256[]",
                    "name": "",
                    "type": "uint256[]"
                }
            ],
            "stateMutability": "nonpayable",
            "type": "function"
        },
        {
            "inputs": [
                {
                    "internalType": "address",
                    "name": "",
                    "type": "address"
                }
            ],
            "name": "addressToId",
            "outputs": [
                {
                    "internalType": "uint256",
                    "name": "",
                    "type": "uint256"
                }
            ],
            "stateMutability": "view",
            "type": "function"
        },
        {
            "inputs": [
                {
                    "internalType": "address[]",
                    "name": "network",
                    "type": "address[]"
                }
            ],
            "name": "allnetwork",
            "outputs": [
                {
                    "internalType": "address[]",
                    "name": "",
                    "type": "address[]"
                }
            ],
            "stateMutability": "view",
            "type": "function"
        },
        {
            "inputs": [],
            "name": "api",
            "outputs": [
                {
                    "internalType": "address",
                    "name": "",
                    "type": "address"
                }
            ],
            "stateMutability": "view",
            "type": "function"
        },
        {
            "inputs": [
                {
                    "internalType": "address",
                    "name": "_user",
                    "type": "address"
                },
                {
                    "internalType": "uint256",
                    "name": "_plan",
                    "type": "uint256"
                },
                {
                    "internalType": "address",
                    "name": "_sponsor",
                    "type": "address"
                },
                {
                    "internalType": "uint256",
                    "name": "_hand",
                    "type": "uint256"
                }
            ],
            "name": "asignarPlan",
            "outputs": [
                {
                    "internalType": "bool",
                    "name": "",
                    "type": "bool"
                }
            ],
            "stateMutability": "nonpayable",
            "type": "function"
        },
        {
            "inputs": [
                {
                    "internalType": "address",
                    "name": "_user",
                    "type": "address"
                },
                {
                    "internalType": "uint256",
                    "name": "_puntosLeft",
                    "type": "uint256"
                },
                {
                    "internalType": "uint256",
                    "name": "_puntosRigth",
                    "type": "uint256"
                }
            ],
            "name": "asignarPuntosBinarios",
            "outputs": [
                {
                    "internalType": "bool",
                    "name": "",
                    "type": "bool"
                }
            ],
            "stateMutability": "nonpayable",
            "type": "function"
        },
        {
            "inputs": [],
            "name": "basePorcientos",
            "outputs": [
                {
                    "internalType": "uint256",
                    "name": "",
                    "type": "uint256"
                }
            ],
            "stateMutability": "view",
            "type": "function"
        },
        {
            "inputs": [
                {
                    "internalType": "uint256",
                    "name": "_plan",
                    "type": "uint256"
                }
            ],
            "name": "buyPlan",
            "outputs": [],
            "stateMutability": "nonpayable",
            "type": "function"
        },
        {
            "inputs": [
                {
                    "internalType": "uint256",
                    "name": "_value",
                    "type": "uint256"
                }
            ],
            "name": "buyValue",
            "outputs": [
                {
                    "internalType": "uint256",
                    "name": "",
                    "type": "uint256"
                }
            ],
            "stateMutability": "view",
            "type": "function"
        },
        {
            "inputs": [
                {
                    "internalType": "address",
                    "name": "yo",
                    "type": "address"
                },
                {
                    "internalType": "uint256",
                    "name": "_largo",
                    "type": "uint256"
                }
            ],
            "name": "column",
            "outputs": [
                {
                    "internalType": "address[]",
                    "name": "",
                    "type": "address[]"
                }
            ],
            "stateMutability": "view",
            "type": "function"
        },
        {
            "inputs": [
                {
                    "internalType": "bool",
                    "name": "_true_false",
                    "type": "bool"
                }
            ],
            "name": "controlBinario",
            "outputs": [
                {
                    "internalType": "bool",
                    "name": "",
                    "type": "bool"
                }
            ],
            "stateMutability": "nonpayable",
            "type": "function"
        },
        {
            "inputs": [
                {
                    "internalType": "bool",
                    "name": "_true_false",
                    "type": "bool"
                }
            ],
            "name": "controlReferidos",
            "outputs": [
                {
                    "internalType": "bool",
                    "name": "",
                    "type": "bool"
                }
            ],
            "stateMutability": "nonpayable",
            "type": "function"
        },
        {
            "inputs": [],
            "name": "dias",
            "outputs": [
                {
                    "internalType": "uint256",
                    "name": "",
                    "type": "uint256"
                }
            ],
            "stateMutability": "view",
            "type": "function"
        },
        {
            "inputs": [
                {
                    "internalType": "address",
                    "name": "_user",
                    "type": "address"
                }
            ],
            "name": "handLeft",
            "outputs": [
                {
                    "internalType": "uint256",
                    "name": "extra",
                    "type": "uint256"
                },
                {
                    "internalType": "uint256",
                    "name": "lost",
                    "type": "uint256"
                },
                {
                    "internalType": "uint256",
                    "name": "reclamados",
                    "type": "uint256"
                },
                {
                    "internalType": "address",
                    "name": "referer",
                    "type": "address"
                }
            ],
            "stateMutability": "view",
            "type": "function"
        },
        {
            "inputs": [
                {
                    "internalType": "address",
                    "name": "_user",
                    "type": "address"
                }
            ],
            "name": "handRigth",
            "outputs": [
                {
                    "internalType": "uint256",
                    "name": "extra",
                    "type": "uint256"
                },
                {
                    "internalType": "uint256",
                    "name": "lost",
                    "type": "uint256"
                },
                {
                    "internalType": "uint256",
                    "name": "reclamados",
                    "type": "uint256"
                },
                {
                    "internalType": "address",
                    "name": "referer",
                    "type": "address"
                }
            ],
            "stateMutability": "view",
            "type": "function"
        },
        {
            "inputs": [
                {
                    "internalType": "uint256",
                    "name": "",
                    "type": "uint256"
                }
            ],
            "name": "idToAddress",
            "outputs": [
                {
                    "internalType": "address",
                    "name": "",
                    "type": "address"
                }
            ],
            "stateMutability": "view",
            "type": "function"
        },
        {
            "inputs": [
                {
                    "internalType": "address[]",
                    "name": "network",
                    "type": "address[]"
                }
            ],
            "name": "insertionLeft",
            "outputs": [
                {
                    "internalType": "address",
                    "name": "wallet",
                    "type": "address"
                }
            ],
            "stateMutability": "view",
            "type": "function"
        },
        {
            "inputs": [
                {
                    "internalType": "address[]",
                    "name": "network",
                    "type": "address[]"
                }
            ],
            "name": "insertionRigth",
            "outputs": [
                {
                    "internalType": "address",
                    "name": "wallet",
                    "type": "address"
                }
            ],
            "stateMutability": "view",
            "type": "function"
        },
        {
            "inputs": [
                {
                    "internalType": "address",
                    "name": "",
                    "type": "address"
                }
            ],
            "name": "investors",
            "outputs": [
                {
                    "internalType": "bool",
                    "name": "registered",
                    "type": "bool"
                },
                {
                    "internalType": "bool",
                    "name": "recompensa",
                    "type": "bool"
                },
                {
                    "internalType": "bool",
                    "name": "pasivo",
                    "type": "bool"
                },
                {
                    "internalType": "uint256",
                    "name": "plan",
                    "type": "uint256"
                },
                {
                    "internalType": "uint256",
                    "name": "balanceRef",
                    "type": "uint256"
                },
                {
                    "internalType": "uint256",
                    "name": "totalRef",
                    "type": "uint256"
                },
                {
                    "internalType": "uint256",
                    "name": "amount",
                    "type": "uint256"
                },
                {
                    "internalType": "uint256",
                    "name": "almacen",
                    "type": "uint256"
                },
                {
                    "internalType": "uint256",
                    "name": "inicio",
                    "type": "uint256"
                },
                {
                    "internalType": "uint256",
                    "name": "invested",
                    "type": "uint256"
                },
                {
                    "internalType": "uint256",
                    "name": "paidAt",
                    "type": "uint256"
                },
                {
                    "internalType": "uint256",
                    "name": "withdrawn",
                    "type": "uint256"
                },
                {
                    "internalType": "uint256",
                    "name": "directos",
                    "type": "uint256"
                },
                {
                    "components": [
                        {
                            "internalType": "uint256",
                            "name": "lReclamados",
                            "type": "uint256"
                        },
                        {
                            "internalType": "uint256",
                            "name": "lLost",
                            "type": "uint256"
                        },
                        {
                            "internalType": "uint256",
                            "name": "lExtra",
                            "type": "uint256"
                        },
                        {
                            "internalType": "address",
                            "name": "lReferer",
                            "type": "address"
                        },
                        {
                            "internalType": "uint256",
                            "name": "rReclamados",
                            "type": "uint256"
                        },
                        {
                            "internalType": "uint256",
                            "name": "rLost",
                            "type": "uint256"
                        },
                        {
                            "internalType": "uint256",
                            "name": "rExtra",
                            "type": "uint256"
                        },
                        {
                            "internalType": "address",
                            "name": "rReferer",
                            "type": "address"
                        }
                    ],
                    "internalType": "struct BinarySystem.Hand",
                    "name": "hands",
                    "type": "tuple"
                }
            ],
            "stateMutability": "view",
            "type": "function"
        },
        {
            "inputs": [],
            "name": "lastUserId",
            "outputs": [
                {
                    "internalType": "uint256",
                    "name": "",
                    "type": "uint256"
                }
            ],
            "stateMutability": "view",
            "type": "function"
        },
        {
            "inputs": [],
            "name": "maxTime",
            "outputs": [
                {
                    "internalType": "uint256",
                    "name": "",
                    "type": "uint256"
                }
            ],
            "stateMutability": "view",
            "type": "function"
        },
        {
            "inputs": [],
            "name": "owner",
            "outputs": [
                {
                    "internalType": "address payable",
                    "name": "",
                    "type": "address"
                }
            ],
            "stateMutability": "view",
            "type": "function"
        },
        {
            "inputs": [
                {
                    "internalType": "address",
                    "name": "",
                    "type": "address"
                }
            ],
            "name": "padre",
            "outputs": [
                {
                    "internalType": "address",
                    "name": "",
                    "type": "address"
                }
            ],
            "stateMutability": "view",
            "type": "function"
        },
        {
            "inputs": [
                {
                    "internalType": "uint256",
                    "name": "_value",
                    "type": "uint256"
                }
            ],
            "name": "payValue",
            "outputs": [
                {
                    "internalType": "uint256",
                    "name": "",
                    "type": "uint256"
                }
            ],
            "stateMutability": "view",
            "type": "function"
        },
        {
            "inputs": [
                {
                    "internalType": "address",
                    "name": "any_user",
                    "type": "address"
                }
            ],
            "name": "personasBinary",
            "outputs": [
                {
                    "internalType": "uint256",
                    "name": "left",
                    "type": "uint256"
                },
                {
                    "internalType": "uint256",
                    "name": "pLeft",
                    "type": "uint256"
                },
                {
                    "internalType": "uint256",
                    "name": "rigth",
                    "type": "uint256"
                },
                {
                    "internalType": "uint256",
                    "name": "pRigth",
                    "type": "uint256"
                }
            ],
            "stateMutability": "view",
            "type": "function"
        },
        {
            "inputs": [
                {
                    "internalType": "uint256",
                    "name": "",
                    "type": "uint256"
                }
            ],
            "name": "plans",
            "outputs": [
                {
                    "internalType": "uint256",
                    "name": "",
                    "type": "uint256"
                }
            ],
            "stateMutability": "view",
            "type": "function"
        },
        {
            "inputs": [],
            "name": "plansLength",
            "outputs": [
                {
                    "internalType": "uint8",
                    "name": "",
                    "type": "uint8"
                }
            ],
            "stateMutability": "view",
            "type": "function"
        },
        {
            "inputs": [],
            "name": "porcent",
            "outputs": [
                {
                    "internalType": "uint256",
                    "name": "",
                    "type": "uint256"
                }
            ],
            "stateMutability": "view",
            "type": "function"
        },
        {
            "inputs": [],
            "name": "porcentPuntosBinario",
            "outputs": [
                {
                    "internalType": "uint256",
                    "name": "",
                    "type": "uint256"
                }
            ],
            "stateMutability": "view",
            "type": "function"
        },
        {
            "inputs": [],
            "name": "porcientoBuy",
            "outputs": [
                {
                    "internalType": "uint256",
                    "name": "",
                    "type": "uint256"
                }
            ],
            "stateMutability": "view",
            "type": "function"
        },
        {
            "inputs": [],
            "name": "porcientoPay",
            "outputs": [
                {
                    "internalType": "uint256",
                    "name": "",
                    "type": "uint256"
                }
            ],
            "stateMutability": "view",
            "type": "function"
        },
        {
            "inputs": [
                {
                    "internalType": "uint256",
                    "name": "",
                    "type": "uint256"
                }
            ],
            "name": "porcientos",
            "outputs": [
                {
                    "internalType": "uint256",
                    "name": "",
                    "type": "uint256"
                }
            ],
            "stateMutability": "view",
            "type": "function"
        },
        {
            "inputs": [],
            "name": "precioRegistro",
            "outputs": [
                {
                    "internalType": "uint256",
                    "name": "",
                    "type": "uint256"
                }
            ],
            "stateMutability": "view",
            "type": "function"
        },
        {
            "inputs": [
                {
                    "internalType": "uint256",
                    "name": "",
                    "type": "uint256"
                }
            ],
            "name": "primervez",
            "outputs": [
                {
                    "internalType": "uint256",
                    "name": "",
                    "type": "uint256"
                }
            ],
            "stateMutability": "view",
            "type": "function"
        },
        {
            "inputs": [
                {
                    "internalType": "address",
                    "name": "any_user",
                    "type": "address"
                }
            ],
            "name": "profit",
            "outputs": [
                {
                    "internalType": "uint256",
                    "name": "",
                    "type": "uint256"
                },
                {
                    "internalType": "uint256",
                    "name": "",
                    "type": "uint256"
                },
                {
                    "internalType": "uint256",
                    "name": "",
                    "type": "uint256"
                },
                {
                    "internalType": "uint256",
                    "name": "",
                    "type": "uint256"
                }
            ],
            "stateMutability": "view",
            "type": "function"
        },
        {
            "inputs": [],
            "name": "rate",
            "outputs": [
                {
                    "internalType": "uint256",
                    "name": "",
                    "type": "uint256"
                }
            ],
            "stateMutability": "view",
            "type": "function"
        },
        {
            "inputs": [],
            "name": "rate2",
            "outputs": [
                {
                    "internalType": "uint256",
                    "name": "",
                    "type": "uint256"
                }
            ],
            "stateMutability": "view",
            "type": "function"
        },
        {
            "inputs": [],
            "name": "rateSell",
            "outputs": [
                {
                    "internalType": "uint256",
                    "name": "",
                    "type": "uint256"
                }
            ],
            "stateMutability": "view",
            "type": "function"
        },
        {
            "inputs": [],
            "name": "redimOTRO",
            "outputs": [
                {
                    "internalType": "uint256",
                    "name": "",
                    "type": "uint256"
                }
            ],
            "stateMutability": "nonpayable",
            "type": "function"
        },
        {
            "inputs": [],
            "name": "redimSITE01",
            "outputs": [
                {
                    "internalType": "uint256",
                    "name": "",
                    "type": "uint256"
                }
            ],
            "stateMutability": "nonpayable",
            "type": "function"
        },
        {
            "inputs": [
                {
                    "internalType": "uint256",
                    "name": "_value",
                    "type": "uint256"
                }
            ],
            "name": "redimSITE02",
            "outputs": [
                {
                    "internalType": "uint256",
                    "name": "",
                    "type": "uint256"
                }
            ],
            "stateMutability": "nonpayable",
            "type": "function"
        },
        {
            "inputs": [],
            "name": "redimTRX",
            "outputs": [
                {
                    "internalType": "uint256",
                    "name": "",
                    "type": "uint256"
                }
            ],
            "stateMutability": "nonpayable",
            "type": "function"
        },
        {
            "inputs": [
                {
                    "internalType": "address",
                    "name": "_sponsor",
                    "type": "address"
                },
                {
                    "internalType": "uint8",
                    "name": "_hand",
                    "type": "uint8"
                }
            ],
            "name": "registro",
            "outputs": [],
            "stateMutability": "nonpayable",
            "type": "function"
        },
        {
            "inputs": [
                {
                    "internalType": "uint256",
                    "name": "_level",
                    "type": "uint256"
                },
                {
                    "internalType": "bool",
                    "name": "_value",
                    "type": "bool"
                }
            ],
            "name": "setActive",
            "outputs": [
                {
                    "internalType": "uint256",
                    "name": "",
                    "type": "uint256"
                },
                {
                    "internalType": "bool",
                    "name": "",
                    "type": "bool"
                }
            ],
            "stateMutability": "nonpayable",
            "type": "function"
        },
        {
            "inputs": [
                {
                    "internalType": "bool[]",
                    "name": "_values",
                    "type": "bool[]"
                }
            ],
            "name": "setActiveAll",
            "outputs": [
                {
                    "internalType": "bool[]",
                    "name": "",
                    "type": "bool[]"
                }
            ],
            "stateMutability": "nonpayable",
            "type": "function"
        },
        {
            "inputs": [
                {
                    "internalType": "uint256",
                    "name": "_base100",
                    "type": "uint256"
                }
            ],
            "name": "setBase",
            "outputs": [
                {
                    "internalType": "uint256",
                    "name": "",
                    "type": "uint256"
                }
            ],
            "stateMutability": "nonpayable",
            "type": "function"
        },
        {
            "inputs": [
                {
                    "internalType": "uint256",
                    "name": "_min",
                    "type": "uint256"
                }
            ],
            "name": "setMIN_RETIRO",
            "outputs": [
                {
                    "internalType": "uint256",
                    "name": "",
                    "type": "uint256"
                }
            ],
            "stateMutability": "nonpayable",
            "type": "function"
        },
        {
            "inputs": [
                {
                    "internalType": "uint256",
                    "name": "_porcentajemaximoParahacerUpgrade",
                    "type": "uint256"
                }
            ],
            "name": "setMaxTime",
            "outputs": [
                {
                    "internalType": "uint256",
                    "name": "",
                    "type": "uint256"
                }
            ],
            "stateMutability": "nonpayable",
            "type": "function"
        },
        {
            "inputs": [
                {
                    "internalType": "uint256",
                    "name": "_level",
                    "type": "uint256"
                },
                {
                    "internalType": "uint256",
                    "name": "_value",
                    "type": "uint256"
                }
            ],
            "name": "setPlans",
            "outputs": [
                {
                    "internalType": "uint256",
                    "name": "",
                    "type": "uint256"
                },
                {
                    "internalType": "uint256",
                    "name": "",
                    "type": "uint256"
                }
            ],
            "stateMutability": "nonpayable",
            "type": "function"
        },
        {
            "inputs": [
                {
                    "internalType": "uint256[]",
                    "name": "_values",
                    "type": "uint256[]"
                }
            ],
            "name": "setPlansAll",
            "outputs": [
                {
                    "internalType": "uint256[]",
                    "name": "",
                    "type": "uint256[]"
                }
            ],
            "stateMutability": "nonpayable",
            "type": "function"
        },
        {
            "inputs": [
                {
                    "internalType": "uint256",
                    "name": "_nivel",
                    "type": "uint256"
                },
                {
                    "internalType": "uint256",
                    "name": "_value",
                    "type": "uint256"
                }
            ],
            "name": "setPorcientos",
            "outputs": [
                {
                    "internalType": "uint256[]",
                    "name": "",
                    "type": "uint256[]"
                }
            ],
            "stateMutability": "nonpayable",
            "type": "function"
        },
        {
            "inputs": [
                {
                    "internalType": "uint256",
                    "name": "_nivel",
                    "type": "uint256"
                },
                {
                    "internalType": "uint256",
                    "name": "_value",
                    "type": "uint256"
                }
            ],
            "name": "setPrimeravezPorcientos",
            "outputs": [
                {
                    "internalType": "uint256[]",
                    "name": "",
                    "type": "uint256[]"
                }
            ],
            "stateMutability": "nonpayable",
            "type": "function"
        },
        {
            "inputs": [
                {
                    "internalType": "uint256",
                    "name": "_porcentaje",
                    "type": "uint256"
                }
            ],
            "name": "setPuntosPorcentajeBinario",
            "outputs": [
                {
                    "internalType": "uint256",
                    "name": "",
                    "type": "uint256"
                }
            ],
            "stateMutability": "nonpayable",
            "type": "function"
        },
        {
            "inputs": [
                {
                    "internalType": "uint256",
                    "name": "_rateBuy",
                    "type": "uint256"
                },
                {
                    "internalType": "uint256",
                    "name": "_rateSell",
                    "type": "uint256"
                }
            ],
            "name": "setRates",
            "outputs": [],
            "stateMutability": "nonpayable",
            "type": "function"
        },
        {
            "inputs": [
                {
                    "internalType": "uint256",
                    "name": "_porcentaje",
                    "type": "uint256"
                }
            ],
            "name": "setRetorno",
            "outputs": [
                {
                    "internalType": "uint256",
                    "name": "",
                    "type": "uint256"
                }
            ],
            "stateMutability": "nonpayable",
            "type": "function"
        },
        {
            "inputs": [
                {
                    "internalType": "uint256",
                    "name": "_dias",
                    "type": "uint256"
                }
            ],
            "name": "setTiempo",
            "outputs": [
                {
                    "internalType": "uint256",
                    "name": "",
                    "type": "uint256"
                }
            ],
            "stateMutability": "nonpayable",
            "type": "function"
        },
        {
            "inputs": [
                {
                    "internalType": "uint256",
                    "name": "_unidades",
                    "type": "uint256"
                }
            ],
            "name": "setTiempoUnidades",
            "outputs": [
                {
                    "internalType": "uint256",
                    "name": "",
                    "type": "uint256"
                }
            ],
            "stateMutability": "nonpayable",
            "type": "function"
        },
        {
            "inputs": [
                {
                    "internalType": "address",
                    "name": "_wallet",
                    "type": "address"
                }
            ],
            "name": "setWalletApi",
            "outputs": [
                {
                    "internalType": "address",
                    "name": "",
                    "type": "address"
                }
            ],
            "stateMutability": "nonpayable",
            "type": "function"
        },
        {
            "inputs": [
                {
                    "internalType": "address",
                    "name": "_wallet1",
                    "type": "address"
                },
                {
                    "internalType": "address",
                    "name": "_wallet2",
                    "type": "address"
                },
                {
                    "internalType": "address",
                    "name": "_wallet3",
                    "type": "address"
                }
            ],
            "name": "setWalletstransfers",
            "outputs": [
                {
                    "internalType": "address",
                    "name": "",
                    "type": "address"
                },
                {
                    "internalType": "address",
                    "name": "",
                    "type": "address"
                },
                {
                    "internalType": "address",
                    "name": "",
                    "type": "address"
                }
            ],
            "stateMutability": "nonpayable",
            "type": "function"
        },
        {
            "inputs": [
                {
                    "internalType": "uint256",
                    "name": "_buy",
                    "type": "uint256"
                },
                {
                    "internalType": "uint256",
                    "name": "_pay",
                    "type": "uint256"
                }
            ],
            "name": "setporcientoBuyPay",
            "outputs": [
                {
                    "internalType": "uint256",
                    "name": "",
                    "type": "uint256"
                },
                {
                    "internalType": "uint256",
                    "name": "",
                    "type": "uint256"
                }
            ],
            "stateMutability": "nonpayable",
            "type": "function"
        },
        {
            "inputs": [],
            "name": "setstate",
            "outputs": [
                {
                    "internalType": "uint256",
                    "name": "Investors",
                    "type": "uint256"
                },
                {
                    "internalType": "uint256",
                    "name": "Invested",
                    "type": "uint256"
                },
                {
                    "internalType": "uint256",
                    "name": "RefRewards",
                    "type": "uint256"
                }
            ],
            "stateMutability": "view",
            "type": "function"
        },
        {
            "inputs": [],
            "name": "sisBinario",
            "outputs": [
                {
                    "internalType": "bool",
                    "name": "",
                    "type": "bool"
                }
            ],
            "stateMutability": "view",
            "type": "function"
        },
        {
            "inputs": [],
            "name": "sisReferidos",
            "outputs": [
                {
                    "internalType": "bool",
                    "name": "",
                    "type": "bool"
                }
            ],
            "stateMutability": "view",
            "type": "function"
        },
        {
            "inputs": [],
            "name": "tiempo",
            "outputs": [
                {
                    "internalType": "uint256",
                    "name": "",
                    "type": "uint256"
                }
            ],
            "stateMutability": "view",
            "type": "function"
        },
        {
            "inputs": [],
            "name": "tokenPago",
            "outputs": [
                {
                    "internalType": "address",
                    "name": "",
                    "type": "address"
                }
            ],
            "stateMutability": "view",
            "type": "function"
        },
        {
            "inputs": [],
            "name": "tokenPricipal",
            "outputs": [
                {
                    "internalType": "address",
                    "name": "",
                    "type": "address"
                }
            ],
            "stateMutability": "view",
            "type": "function"
        },
        {
            "inputs": [],
            "name": "totalInvested",
            "outputs": [
                {
                    "internalType": "uint256",
                    "name": "",
                    "type": "uint256"
                }
            ],
            "stateMutability": "view",
            "type": "function"
        },
        {
            "inputs": [],
            "name": "totalInvestors",
            "outputs": [
                {
                    "internalType": "uint256",
                    "name": "",
                    "type": "uint256"
                }
            ],
            "stateMutability": "view",
            "type": "function"
        },
        {
            "inputs": [],
            "name": "totalRefRewards",
            "outputs": [
                {
                    "internalType": "uint256",
                    "name": "",
                    "type": "uint256"
                }
            ],
            "stateMutability": "view",
            "type": "function"
        },
        {
            "inputs": [],
            "name": "transfer1",
            "outputs": [
                {
                    "internalType": "bool",
                    "name": "",
                    "type": "bool"
                }
            ],
            "stateMutability": "view",
            "type": "function"
        },
        {
            "inputs": [],
            "name": "transfer2",
            "outputs": [
                {
                    "internalType": "bool",
                    "name": "",
                    "type": "bool"
                }
            ],
            "stateMutability": "view",
            "type": "function"
        },
        {
            "inputs": [],
            "name": "transfer3",
            "outputs": [
                {
                    "internalType": "bool",
                    "name": "",
                    "type": "bool"
                }
            ],
            "stateMutability": "view",
            "type": "function"
        },
        {
            "inputs": [
                {
                    "internalType": "address payable",
                    "name": "newOwner",
                    "type": "address"
                }
            ],
            "name": "transferOwnership",
            "outputs": [],
            "stateMutability": "nonpayable",
            "type": "function"
        },
        {
            "inputs": [],
            "name": "unidades",
            "outputs": [
                {
                    "internalType": "uint256",
                    "name": "",
                    "type": "uint256"
                }
            ],
            "stateMutability": "view",
            "type": "function"
        },
        {
            "inputs": [
                {
                    "internalType": "uint256",
                    "name": "_plan",
                    "type": "uint256"
                }
            ],
            "name": "upGradePlan",
            "outputs": [],
            "stateMutability": "nonpayable",
            "type": "function"
        },
        {
            "inputs": [],
            "name": "wallet1",
            "outputs": [
                {
                    "internalType": "address",
                    "name": "",
                    "type": "address"
                }
            ],
            "stateMutability": "view",
            "type": "function"
        },
        {
            "inputs": [],
            "name": "wallet2",
            "outputs": [
                {
                    "internalType": "address",
                    "name": "",
                    "type": "address"
                }
            ],
            "stateMutability": "view",
            "type": "function"
        },
        {
            "inputs": [],
            "name": "wallet3",
            "outputs": [
                {
                    "internalType": "address",
                    "name": "",
                    "type": "address"
                }
            ],
            "stateMutability": "view",
            "type": "function"
        },
        {
            "inputs": [],
            "name": "withdraw",
            "outputs": [],
            "stateMutability": "nonpayable",
            "type": "function"
        },
        {
            "inputs": [],
            "name": "withdrawToDeposit",
            "outputs": [],
            "stateMutability": "nonpayable",
            "type": "function"
        },
        {
            "inputs": [
                {
                    "internalType": "address",
                    "name": "any_user",
                    "type": "address"
                }
            ],
            "name": "withdrawable",
            "outputs": [
                {
                    "internalType": "uint256",
                    "name": "amount",
                    "type": "uint256"
                }
            ],
            "stateMutability": "view",
            "type": "function"
        },
        {
            "inputs": [
                {
                    "internalType": "address",
                    "name": "any_user",
                    "type": "address"
                }
            ],
            "name": "withdrawableBinary",
            "outputs": [
                {
                    "internalType": "uint256",
                    "name": "left",
                    "type": "uint256"
                },
                {
                    "internalType": "uint256",
                    "name": "rigth",
                    "type": "uint256"
                },
                {
                    "internalType": "uint256",
                    "name": "amount",
                    "type": "uint256"
                }
            ],
            "stateMutability": "view",
            "type": "function"
        },
        {
            "stateMutability": "payable",
            "type": "receive"
        }
    ],
    "bytecode": "620f4240600481905560088190556009556064600a819055600b8190556101206040526080908152600060a081905260c081905260e0819052610100526200004c90600c906005620002ce565b506040805160a0810182526000808252602082018190529181018290526060810182905260808101919091526200008890600d906005620002ce565b5060408051610200810182526000815263017d784060208201526302faf080918101919091526305f5e10060608201526311e1a3006080820152631dcd650060a0820152633b9aca0060c0820152637735940060e082015264012a05f20061010082015264174876e80061012082015264e8d4a510006101408201526501d1a94a20006101608201526502ba7def300061018082015265048c273950006101a082015266038d7ea4c680006101c082015266071afd498d00006101e08201526200015790600e90601062000323565b50604080516102008101825260008152600160208201819052918101829052606081018290526080810182905260a0810182905260c0810182905260e08101829052610100810182905261012081018290526101408101829052610160810182905261018081018290526101a081018290526101c081018290526101e0810191909152620001ea90600f9060106200036c565b506103e86010556011805461ffff19166101011790556001601281905562015180601355605a60145560c8601555600a601655624c4b406017556018556002601f553480156200023957600080fd5b5060008054336001600160a01b031991821681178355808352601b602090815260408085206023805486168517905560228054861685179055602180548616851790558254851684178355805461ffff19166101011790557f9de6abd965d55c3bb0cdbf6fa175050624c6ff8fe86f682dc08f2a450ede22788054909416909217909255601e90915290206001905562000425565b82805482825590600052602060002090810192821562000311579160200282015b8281111562000311578251829060ff16905591602001919060010190620002ef565b506200031f9291506200040e565b5090565b82805482825590600052602060002090810192821562000311579160200282015b8281111562000311578251829066ffffffffffffff1690559160200191906001019062000344565b82805482825590600052602060002090601f01602090048101928215620003115791602002820160005b83821115620003d557835183826101000a81548160ff021916908315150217905550926020019260010160208160000104928301926001030262000396565b8015620004045782816101000a81549060ff0219169055600101602081600001049283019260010302620003d5565b50506200031f9291505b5b808211156200031f57600081556001016200040f565b61517580620004356000396000f3fe6080604052600436106104aa5760003560e01c80636d038a0311610269578063b13904261161014e578063ce513b6f116100c6578063ebe690bd11610082578063ebe690bd1461112d578063edc2fe291461114d578063f2fde38b1461116d578063f555b8151461118d578063f90b3f5a146111a3578063faafa907146111c357005b8063ce513b6f14611038578063ce51abb714611058578063d2c18e0b1461106e578063d8de40641461108e578063e506e1c0146110ae578063e60a955d146110f857005b8063c14b836111610115578063c14b836114610f80578063c2307ee614610fa0578063c510c06014610fb6578063c8065ede14610fd6578063cb0e0d7d14610ff6578063cdb8bb2a1461102357005b8063b139042614610ed4578063b162061614610ef4578063b35f0a8f14610f14578063b9be8cdc14610f4a578063bfe0e02014610f6a57005b80638929cbc5116101e15780639d1a5ea1116101a85780639d1a5ea114610e29578063a00a8c9b14610e49578063a80b223b14610e5e578063a95b4df914610e7e578063ab6db19914610e9e578063ac6af28014610eb457005b80638929cbc514610d7f5780638da5cb5b14610d945780639496e6f814610db457806396ba536314610de957806398b777e714610e0957005b80637db9e9c6116102305780637db9e9c614610cc75780637e8ff94d14610cdd5780637f65816614610cf35780637faee04714610d0d5780638033d58114610d2d57806385338e2014610d4d57005b80636d038a0314610ae55780636f7bc9be14610b05578063725fc27014610c7257806372c5dd3414610c9257806378f1567114610cb257005b80634728f7181161038f57806355465fa51161030757806367583cf8116102ce57806367583cf814610a0657806368b058eb14610a265780636999c45e14610a3b5780636a88e29714610a5b5780636bf199ff14610aaf5780636c52927914610acf57005b806355465fa51461090a5780635a090c2d1461098757806364417c89146109a75780636589fa8a146109c75780636657a040146109e757005b80634e0e3323116103565780634e0e33231461085f5780634e929b0f1461087f57806350188c081461089f57806350da983f146108b45780635216aeec146108d457806354822522146108ea57005b80634728f718146107d05780634b9b8203146107e65780634bdcd429146107fc5780634dbc9d15146108125780634de1be621461083f57005b80632748d29b11610422578063343bfdff116103e9578063343bfdff14610724578063348d44871461074557806338e80f681461075b5780633c918bae1461077b5780633ccfd60b1461079b57806342ccc234146107b057005b80632748d29b1461068257806328cca719146106a257806329b8caff146106c25780632a2d0c47146106d85780632c4e722e1461070e57005b80631ce7f99b116104715780631ce7f99b1461059d5780631e403c35146105bd57806321adf6a4146105ea57806322e67e711461061b578063248c44e81461063f57806326837aa81461066057005b806302550e4d146104b35780630b8d0a28146104f857806315e8392b1461053057806316a644161461055d5780631a026c961461057d57005b366104b157005b005b3480156104bf57600080fd5b506104d36104ce36600461492b565b6111d9565b6040805194855260208501939093529183015260608201526080015b60405180910390f35b34801561050457600080fd5b50602254610518906001600160a01b031681565b6040516001600160a01b0390911681526020016104ef565b34801561053c57600080fd5b5061055061054b366004614993565b611322565b6040516104ef9190614cf5565b34801561056957600080fd5b50600754610518906001600160a01b031681565b34801561058957600080fd5b50602154610518906001600160a01b031681565b3480156105a957600080fd5b506105506105b8366004614a7b565b6113b9565b3480156105c957600080fd5b506105dd6105d8366004614cd3565b611478565b6040516104ef9190614d7c565b3480156105f657600080fd5b5060235461060b90600160b01b900460ff1681565b60405190151581526020016104ef565b34801561062757600080fd5b5061063160145481565b6040519081526020016104ef565b34801561064b57600080fd5b5060235461060b90600160a81b900460ff1681565b34801561066c57600080fd5b50600e5460405160ff90911681526020016104ef565b34801561068e57600080fd5b5061063161069d366004614c7c565b61150d565b3480156106ae57600080fd5b506106316106bd366004614c7c565b61152e565b3480156106ce57600080fd5b5061063160185481565b3480156106e457600080fd5b506105186106f3366004614c7c565b601d602052600090815260409020546001600160a01b031681565b34801561071a57600080fd5b5061063160085481565b34801561073057600080fd5b5060235461060b90600160a01b900460ff1681565b34801561075157600080fd5b50610631601f5481565b34801561076757600080fd5b50610631610776366004614c7c565b61154f565b34801561078757600080fd5b50602354610518906001600160a01b031681565b3480156107a757600080fd5b506104b1611570565b3480156107bc57600080fd5b506105186107cb366004614a7b565b6118e7565b3480156107dc57600080fd5b5061063160155481565b3480156107f257600080fd5b5061063160135481565b34801561080857600080fd5b5061063160055481565b34801561081e57600080fd5b5061083261082d366004614b21565b6119d4565b6040516104ef9190614d42565b34801561084b57600080fd5b5061063161085a366004614c7c565b611a7a565b34801561086b57600080fd5b506105dd61087a366004614bb6565b611a9b565b34801561088b57600080fd5b506104d361089a36600461492b565b611b20565b3480156108ab57600080fd5b50610631611d35565b3480156108c057600080fd5b5061060b6108cf36600461492b565b611d53565b3480156108e057600080fd5b5061063160195481565b3480156108f657600080fd5b506105dd610905366004614cd3565b611d99565b34801561091657600080fd5b5061095e61092536600461492b565b6001600160a01b039081166000908152601b60205260409020600d810154600c820154600b830154600e90930154919490939190911690565b604080519485526020850193909352918301526001600160a01b031660608201526080016104ef565b34801561099357600080fd5b5061060b6109a2366004614a07565b611e2c565b3480156109b357600080fd5b506106316109c2366004614c7c565b611e9d565b3480156109d357600080fd5b506106316109e2366004614c7c565b611ebe565b3480156109f357600080fd5b5060115461060b90610100900460ff1681565b348015610a1257600080fd5b50610631610a21366004614c7c565b611edf565b348015610a3257600080fd5b50610631611f93565b348015610a4757600080fd5b506105dd610a56366004614c7c565b611fae565b348015610a6757600080fd5b5061095e610a7636600461492b565b6001600160a01b039081166000908152601b6020526040902060118101546010820154600f830154601290930154919490939190911690565b348015610abb57600080fd5b50610518610aca366004614a7b565b612093565b348015610adb57600080fd5b5061063160045481565b348015610af157600080fd5b5061060b610b0036600461492b565b612168565b348015610b1157600080fd5b50610c58610b2036600461492b565b601b6020528060005260406000206000915090508060000160009054906101000a900460ff16908060000160019054906101000a900460ff16908060000160029054906101000a900460ff169080600101549080600201549080600301549080600401549080600501549080600601549080600701549080600801549080600901549080600a01549080600b01604051806101000160405290816000820154815260200160018201548152602001600282015481526020016003820160009054906101000a90046001600160a01b03166001600160a01b03166001600160a01b031681526020016004820154815260200160058201548152602001600682015481526020016007820160009054906101000a90046001600160a01b03166001600160a01b03166001600160a01b03168152505090508e565b6040516104ef9e9d9c9b9a99989796959493929190614db4565b348015610c7e57600080fd5b50610631610c8d366004614c7c565b6121b3565b348015610c9e57600080fd5b506104b1610cad366004614c7c565b6121c3565b348015610cbe57600080fd5b506106316127da565b348015610cd357600080fd5b5061063160175481565b348015610ce957600080fd5b50610631600b5481565b348015610cff57600080fd5b5060115461060b9060ff1681565b348015610d1957600080fd5b50610550610d28366004614a7b565b6128ff565b348015610d3957600080fd5b5061060b610d48366004614c7c565b612abf565b348015610d5957600080fd5b50601854601954601a545b604080519384526020840192909252908201526060016104ef565b348015610d8b57600080fd5b50610631612af3565b348015610da057600080fd5b50600054610518906001600160a01b031681565b348015610dc057600080fd5b50610dd4610dcf366004614cd3565b612bc4565b604080519283526020830191909152016104ef565b348015610df557600080fd5b5061060b610e0436600461492b565b612c13565b348015610e1557600080fd5b50610631610e24366004614c7c565b612c50565b348015610e3557600080fd5b5061060b610e44366004614c42565b612c71565b348015610e5557600080fd5b506104b1612ca0565b348015610e6a57600080fd5b506104b1610e79366004614c7c565b612e20565b348015610e8a57600080fd5b50610d64610e9936600461492b565b613203565b348015610eaa57600080fd5b5061063160125481565b348015610ec057600080fd5b506104b1610ecf366004614cd3565b61351b565b348015610ee057600080fd5b50600654610518906001600160a01b031681565b348015610f0057600080fd5b50610631610f0f366004614c7c565b61358e565b348015610f2057600080fd5b50610518610f2f36600461492b565b601c602052600090815260409020546001600160a01b031681565b348015610f5657600080fd5b50610631610f65366004614c7c565b61359e565b348015610f7657600080fd5b50610631601a5481565b348015610f8c57600080fd5b506104b1610f9b366004614a3c565b613707565b348015610fac57600080fd5b5061063160165481565b348015610fc257600080fd5b50610518610fd136600461492b565b613bf2565b348015610fe257600080fd5b50610631610ff1366004614c7c565b613c29565b34801561100257600080fd5b5061063161101136600461492b565b601e6020526000908152604090205481565b34801561102f57600080fd5b50610631613c8d565b34801561104457600080fd5b5061063161105336600461492b565b613ce6565b34801561106457600080fd5b50610631600a5481565b34801561107a57600080fd5b50602054610518906001600160a01b031681565b34801561109a57600080fd5b5061060b6110a9366004614c42565b613dbe565b3480156110ba57600080fd5b506110ce6110c9366004614948565b613de8565b604080516001600160a01b03948516815292841660208401529216918101919091526060016104ef565b34801561110457600080fd5b50611118611113366004614cae565b613f1b565b604080519283529015156020830152016104ef565b34801561113957600080fd5b5061060b6111483660046149bf565b613f7f565b34801561115957600080fd5b50610dd4611168366004614cd3565b6144e1565b34801561117957600080fd5b506104b161118836600461492b565b61450b565b34801561119957600080fd5b5061063160095481565b3480156111af57600080fd5b506106316111be366004614c7c565b614590565b3480156111cf57600080fd5b5061063160105481565b6001600160a01b0381166000908152601b6020526040812060048101546002820154839283928392839182918280806112118d613203565b97509093509150821580159061122657508115155b801561123157508515155b80156112425750600288600a015410155b156112a45785851061126b5761125886866150a5565b94506112648688614f61565b965061127c565b600094506112798588614f61565b96505b42611293611288611d35565b60068b0154906145b1565b106112a0575060016112a4565b5060025b6112ad8d613ce6565b85106112e2576112bc8d613ce6565b6112c690866150a5565b94506112d18d613ce6565b6112db9088614f61565b96506112f3565b600094506112f08588614f61565b96505b6112fd8488614f61565b965087600501548761130f9190614f61565b9d929c50909a5098509650505050505050565b60608060005b838110156113af57611339826113b9565b6001600160a01b038087166000908152601c60205260409020548251929450169083908390811061136c5761136c6150ed565b6001600160a01b039283166020918202929092018101919091529581166000908152601c90965260409095205490941693806113a7816150bc565b915050611328565b5090505b92915050565b60606000825160016113cb9190614f61565b67ffffffffffffffff8111156113e3576113e3615103565b60405190808252806020026020018201604052801561140c578160200160208202803683370190505b50905060005b83518110156114715783818151811061142d5761142d6150ed565b6020026020010151828281518110611447576114476150ed565b6001600160a01b039092166020928302919091019091015280611469816150bc565b915050611412565b5092915050565b6000546060906001600160a01b0316331461149257600080fd5b81600d84815481106114a6576114a66150ed565b9060005260206000200181905550600d80548060200260200160405190810160405280929190818152602001828054801561150057602002820191906000526020600020905b8154815260200190600101908083116114ec575b5050505050905092915050565b600080546001600160a01b0316331461152557600080fd5b50601381905590565b600d818154811061153e57600080fd5b600091825260209091200154905081565b600080546001600160a01b0316331461156757600080fd5b50601081905590565b336000818152601b602052604081209181908190819061158f906111d9565b929650909450925090506115a284611edf565b6002546040516370a0823160e01b81523060048201526001600160a01b03909116906370a082319060240160206040518083038186803b1580156115e557600080fd5b505afa1580156115f9573d6000803e3d6000fd5b505050506040513d601f19601f8201168201806040525081019061161d9190614c95565b10156116705760405162461bcd60e51b815260206004820152601b60248201527f54686520636f6e747261637420686173206e6f2062616c616e6365000000000060448201526064015b60405180910390fd5b6004548410156116ce5760405162461bcd60e51b8152602060048201526024808201527f546865206d696e696d756d207769746864726177616c206c696d69742072656160448201526318da195960e21b6064820152608401611667565b6002546001600160a01b031663a9059cbb336116e987611edf565b6040516001600160e01b031960e085901b1681526001600160a01b0390921660048301526024820152604401602060405180830381600087803b15801561172f57600080fd5b505af1158015611743573d6000803e3d6000fd5b505050506040513d601f19601f820116820180604052508101906117679190614c5f565b5080600114156117f057818310156117b7578285600b0160000160008282546117909190614f61565b9091555050600f850180548491906000906117ac908490614f61565b909155506117f09050565b8185600b0160000160008282546117ce9190614f61565b9091555050600f850180548391906000906117ea908490614f61565b90915550505b8060021415611878578183101561183f578285600b0160010160008282546118189190614f61565b9091555050601085018054849190600090611834908490614f61565b909155506118789050565b8185600b0160010160008282546118569190614f61565b9091555050601085018054839190600090611872908490614f61565b90915550505b6118968560050154866002015461188f9190614f61565b85906145d4565b8560040160008282546118a991906150a5565b92505081905550838560090160008282546118c49190614f61565b909155505042600886015550506000600284018190556005909301929092555050565b6000805b82518110156119c4576000601b600085848151811061190c5761190c6150ed565b6020908102919091018101516001600160a01b039081168352908201929092526040016000206012810154909250168061196457848381518110611952576119526150ed565b60200260200101519350505050919050565b61196d856113b9565b945080856001875161197f91906150a5565b8151811061198f5761198f6150ed565b60200260200101906001600160a01b031690816001600160a01b031681525050505080806119bc906150bc565b9150506118eb565b506119ce826118e7565b50919050565b6000546060906001600160a01b031633146119ee57600080fd5b8151611a0190600f906020850190614836565b50600f805480602002602001604051908101604052809291908181526020018280548015611a6e57602002820191906000526020600020906000905b825461010083900a900460ff161515815260206001928301818104948501949093039092029101808411611a3d5790505b50505050509050919050565b600080546001600160a01b03163314611a9257600080fd5b50600481905590565b6000546060906001600160a01b03163314611ab557600080fd5b8151611ac890600e9060208501906148db565b50600e805480602002602001604051908101604052809291908181526020018280548015611a6e57602002820191906000526020600020905b815481526020019060010190808311611b015750505050509050919050565b6001600160a01b038082166000908152601b60205260408120600e810154919283928392839290911615611c2a576060611b59816113b9565b600e83015481519192506001600160a01b0316908290600090611b7e57611b7e6150ed565b60200260200101906001600160a01b031690816001600160a01b031681525050611ba7816128ff565b905060005b8151811015611c2757601b6000838381518110611bcb57611bcb6150ed565b60200260200101516001600160a01b03166001600160a01b031681526020019081526020016000209250826007015487611c059190614f61565b965085611c11816150bc565b9650508080611c1f906150bc565b915050611bac565b50505b506001600160a01b038086166000908152601b60205260409020601281015490911615611d2d576060611c5c816113b9565b601283015481519192506001600160a01b0316908290600090611c8157611c816150ed565b60200260200101906001600160a01b031690816001600160a01b031681525050611caa816128ff565b905060005b8151811015611d2a57601b6000838381518110611cce57611cce6150ed565b60200260200101516001600160a01b03166001600160a01b031681526020019081526020016000209250826007015485611d089190614f61565b945083611d14816150bc565b9450508080611d22906150bc565b915050611caf565b50505b509193509193565b6000611d4e6013546012546145f790919063ffffffff16565b905090565b600080546001600160a01b03163314611d6b57600080fd5b50600180546001600160a01b0383166001600160a01b03199182168117835560068054909216179055919050565b6000546060906001600160a01b03163314611db357600080fd5b81600c8481548110611dc757611dc76150ed565b9060005260206000200181905550600c80548060200260200160405190810160405280929190818152602001828054801561150057602002820191906000526020600020908154815260200190600101908083116114ec575050505050905092915050565b600080546001600160a01b03163314611e4457600080fd5b6001600160a01b0384166000908152601b60205260408120600d8101805491928692611e71908490614f61565b9091555050601181018054849190600090611e8d908490614f61565b9091555060019695505050505050565b600080546001600160a01b03163314611eb557600080fd5b50601681905590565b600080546001600160a01b03163314611ed657600080fd5b50601581905590565b60006113b36064611f87600b54611f8d611ef7611f93565b6002546040805163313ce56760e01b81529051611f87926001600160a01b03169163313ce567916004808301926020929190829003018186803b158015611f3d57600080fd5b505afa158015611f51573d6000803e3d6000fd5b505050506040513d601f19601f82011682018060405250810190611f759190614c95565b611f8090600a614fde565b89906145f7565b90614629565b906145f7565b600060095460085414611fa7575060095490565b5060085490565b6000546060906001600160a01b03163314611fc857600080fd5b600e8054600181810183557fbb7b4a454dc3493923482f07822329ed19e8244eff582cc204f8554c3620c3fd909101849055600f8054918201815560005260208082047f8d1108e10bcb7c27dddfc02ed9d693a074039d026cf4ea4240b40f7d581ac80201805460ff601f9094166101000a9384021916909217909155815460408051828402810184019091528181529291830182828015611a6e5760200282019190600052602060002090815481526020019060010190808311611b015750505050509050919050565b6000805b825181101561215e576000601b60008584815181106120b8576120b86150ed565b6020908102919091018101516001600160a01b03908116835290820192909252604001600020600e81015490925016806120fe57848381518110611952576119526150ed565b612107856113b9565b945080856001875161211991906150a5565b81518110612129576121296150ed565b60200260200101906001600160a01b031690816001600160a01b03168152505050508080612156906150bc565b915050612097565b506119ce82612093565b600080546001600160a01b0316331461218057600080fd5b50600280546001600160a01b0383166001600160a01b031991821681179092556007805490911690911790556001919050565b600c818154811061153e57600080fd5b336000908152601b602052604090206006810154158015906122055750426122026121f76064611f87601454611f8d611d35565b6006840154906145b1565b10155b156127d5578060010154600e8381548110612222576122226150ed565b9060005260206000200154116122915760405162461bcd60e51b815260206004820152602e60248201527f7469656e65207175652073657220756e20706c616e206d61796f72207061726160448201526d206861636572207570677261646560901b6064820152608401611667565b600f82815481106122a4576122a46150ed565b90600052602060002090602091828204019190069054906101000a900460ff166122e05760405162461bcd60e51b815260040161166790614eb6565b60006123168260010154600e85815481106122fd576122fd6150ed565b90600052602060002001546145d490919063ffffffff16565b905061232181613c29565b600154604051636eb1769f60e11b81523360048201523060248201526001600160a01b039091169063dd62ed3e9060440160206040518083038186803b15801561236a57600080fd5b505afa15801561237e573d6000803e3d6000fd5b505050506040513d601f19601f820116820180604052508101906123a29190614c95565b10156123c05760405162461bcd60e51b815260040161166790614e87565b6001546001600160a01b03166323b872dd33306123dc85613c29565b6040516001600160e01b031960e086901b1681526001600160a01b0393841660048201529290911660248301526044820152606401602060405180830381600087803b15801561242b57600080fd5b505af115801561243f573d6000803e3d6000fd5b505050506040513d601f19601f820116820180604052508101906124639190614c5f565b61247f5760405162461bcd60e51b815260040161166790614ee0565b426006830155600e805484908110612499576124996150ed565b60009182526020909120015460018301556015546124c3906124bc906064614629565b82906145f7565b8260040160008282546124d69190614f61565b92505081905550808260070160008282546124f19190614f61565b9091555050336000908152601c60205260409020546001600160a01b03161580159061251f575060115460ff165b1561257f5761257f3382600d80548060200260200160405190810160405280929190818152602001828054801561257557602002820191906000526020600020905b815481526020019060010190808311612561575b5050505050614643565b80601960008282546125919190614f61565b9091555050602354600160a01b900460ff1615612654576001546021546001600160a01b039182169163a9059cbb91166125d46064611f87600a611f8d88613c29565b6040516001600160e01b031960e085901b1681526001600160a01b0390921660048301526024820152604401602060405180830381600087803b15801561261a57600080fd5b505af115801561262e573d6000803e3d6000fd5b505050506040513d601f19601f820116820180604052508101906126529190614c5f565b505b602354600160a81b900460ff1615612712576001546022546001600160a01b039182169163a9059cbb91166126926064611f876007611f8d88613c29565b6040516001600160e01b031960e085901b1681526001600160a01b0390921660048301526024820152604401602060405180830381600087803b1580156126d857600080fd5b505af11580156126ec573d6000803e3d6000fd5b505050506040513d601f19601f820116820180604052508101906127109190614c5f565b505b602354600160b01b900460ff16156127d0576001546023546001600160a01b039182169163a9059cbb91166127506064611f87600a611f8d88613c29565b6040516001600160e01b031960e085901b1681526001600160a01b0390921660048301526024820152604401602060405180830381600087803b15801561279657600080fd5b505af11580156127aa573d6000803e3d6000fd5b505050506040513d601f19601f820116820180604052508101906127ce9190614c5f565b505b505050565b600080fd5b600080546001600160a01b031633146127f257600080fd5b6001546040516370a0823160e01b81523060048201526000916001600160a01b0316906370a082319060240160206040518083038186803b15801561283657600080fd5b505afa15801561284a573d6000803e3d6000fd5b505050506040513d601f19601f8201168201806040525081019061286e9190614c95565b60015460005460405163a9059cbb60e01b81526001600160a01b03918216600482015260248101849052929350169063a9059cbb906044015b602060405180830381600087803b1580156128c157600080fd5b505af11580156128d5573d6000803e3d6000fd5b505050506040513d601f19601f820116820180604052508101906128f99190614c5f565b50905090565b606060005b8251811015612ab8576000601b6000858481518110612925576129256150ed565b6020908102919091018101516001600160a01b039081168352908201929092526040016000908120600e810154601282015491945083169216905b86518110156129eb5786818151811061297b5761297b6150ed565b60200260200101516001600160a01b0316836001600160a01b031614156129a157600092505b8681815181106129b3576129b36150ed565b60200260200101516001600160a01b0316826001600160a01b031614156129d957600091505b806129e3816150bc565b915050612960565b506001600160a01b03821615612a4757612a04866113b9565b9550818660018851612a1691906150a5565b81518110612a2657612a266150ed565b60200260200101906001600160a01b031690816001600160a01b0316815250505b6001600160a01b03811615612aa257612a5f866113b9565b9550808660018851612a7191906150a5565b81518110612a8157612a816150ed565b60200260200101906001600160a01b031690816001600160a01b0316815250505b5050508080612ab0906150bc565b915050612904565b5090919050565b600f8181548110612acf57600080fd5b9060005260206000209060209182820401919006915054906101000a900460ff1681565b600080546001600160a01b03163314612b0b57600080fd5b6003546040516370a0823160e01b81523060048201526000916001600160a01b0316906370a082319060240160206040518083038186803b158015612b4f57600080fd5b505afa158015612b63573d6000803e3d6000fd5b505050506040513d601f19601f82011682018060405250810190612b879190614c95565b60035460005460405163a9059cbb60e01b81526001600160a01b03918216600482015260248101849052929350169063a9059cbb906044016128a7565b6000805481906001600160a01b03163314612bde57600080fd5b612bec836305f5e100615086565b600e8581548110612bff57612bff6150ed565b600091825260209091200155509192909150565b600080546001600160a01b03163314612c2b57600080fd5b50600380546001600160a01b0383166001600160a01b03199091161790556001919050565b600080546001600160a01b03163314612c6857600080fd5b50601481905590565b600080546001600160a01b03163314612c8957600080fd5b506011805461ff0019166101008315150217905590565b336000818152601b6020526040812091819081908190612cbf906111d9565b929650909450925090506001811415612d515781831015612d18578285600b016000016000828254612cf19190614f61565b9091555050600f85018054849190600090612d0d908490614f61565b90915550612d519050565b8185600b016000016000828254612d2f9190614f61565b9091555050600f85018054839190600090612d4b908490614f61565b90915550505b8060021415612dd95781831015612da0578285600b016001016000828254612d799190614f61565b9091555050601085018054849190600090612d95908490614f61565b90915550612dd99050565b8185600b016001016000828254612db79190614f61565b9091555050601085018054839190600090612dd3908490614f61565b90915550505b612df08560050154866002015461188f9190614f61565b856004016000828254612e0391906150a5565b909155505050505060058201554260088201556000600290910155565b600e548111801590612e325750600081115b612e705760405162461bcd60e51b815260206004820152600f60248201526e706c616e20696e636f72726563746f60881b6044820152606401611667565b600f8181548110612e8357612e836150ed565b90600052602060002090602091828204019190069054906101000a900460ff16612ebf5760405162461bcd60e51b815260040161166790614eb6565b336000908152601b60205260409020805460ff16156127d5576000600e8381548110612eed57612eed6150ed565b90600052602060002001549050612f0381613c29565b600154604051636eb1769f60e11b81523360048201523060248201526001600160a01b039091169063dd62ed3e9060440160206040518083038186803b158015612f4c57600080fd5b505afa158015612f60573d6000803e3d6000fd5b505050506040513d601f19601f82011682018060405250810190612f849190614c95565b1015612fa25760405162461bcd60e51b815260040161166790614e87565b6001546001600160a01b03166323b872dd3330612fbe85613c29565b6040516001600160e01b031960e086901b1681526001600160a01b0393841660048201529290911660248301526044820152606401602060405180830381600087803b15801561300d57600080fd5b505af1158015613021573d6000803e3d6000fd5b505050506040513d601f19601f820116820180604052508101906130459190614c5f565b6130615760405162461bcd60e51b815260040161166790614ee0565b336000908152601c60205260409020546001600160a01b03161580159061308a575060115460ff165b1561314f5760018201546130f6576130f13382600c8054806020026020016040519081016040528092919081815260200182805480156125755760200282019190600052602060002090815481526020019060010190808311612561575050505050614643565b61314f565b61314f3382600d8054806020026020016040519081016040528092919081815260200182805480156125755760200282019190600052602060002090815481526020019060010190808311612561575050505050614643565b4282600601819055508082600701600082825461316c9190614f61565b9091555050601554613183906124bc906064614629565b8260040160008282546131969190614f61565b925050819055506131b36121f76064611f87601454611f8d611d35565b42106131c557600182018190556131df565b808260010160008282546131d99190614f61565b90915550505b815462ff000019166201000017825560198054829190600090612591908490614f61565b6001600160a01b038082166000908152601b60205260408120600e8101549192839283929116156132fc576060613239816113b9565b600e83015481519192506001600160a01b031690829060009061325e5761325e6150ed565b60200260200101906001600160a01b031690816001600160a01b031681525050613287816128ff565b905060005b81518110156132f957601b60008383815181106132ab576132ab6150ed565b60200260200101516001600160a01b03166001600160a01b0316815260200190815260200160002092508260070154866132e59190614f61565b9550806132f1816150bc565b91505061328c565b50505b506001600160a01b0384166000908152601b60205260409020600d8101546133249085614f61565b600c820154600b83015491955061333b91906145b1565b61334590856150a5565b60128201549094506001600160a01b031615613429576060613366816113b9565b601283015481519192506001600160a01b031690829060009061338b5761338b6150ed565b60200260200101906001600160a01b031690816001600160a01b0316815250506133b4816128ff565b905060005b815181101561342657601b60008383815181106133d8576133d86150ed565b60200260200101516001600160a01b03166001600160a01b0316815260200190815260200160002092508260070154856134129190614f61565b94508061341e816150bc565b9150506133b9565b50505b506001600160a01b0384166000908152601b6020526040902060118101546134519084614f61565b6010820154600f83015491945061346891906145b1565b61347290846150a5565b9250828410156134cd57806004015461349b6064611f87601654886145f790919063ffffffff16565b116134c1576134ba6064611f87601654876145f790919063ffffffff16565b9150613513565b80600401549150613513565b80600401546134ec6064611f87601654876145f790919063ffffffff16565b1161350b576134ba6064611f87601654866145f790919063ffffffff16565b806004015491505b509193909250565b6000546001600160a01b031633148061353e57506020546001600160a01b031633145b6135835760405162461bcd60e51b81526020600482015260166024820152752737903a34b2b732b99030baba37b934bd30b1b4b7b760511b6044820152606401611667565b600891909155600955565b600e818154811061153e57600080fd5b600080546001600160a01b031633146135b657600080fd5b6001546040516370a0823160e01b815230600482015283916001600160a01b0316906370a082319060240160206040518083038186803b1580156135f957600080fd5b505afa15801561360d573d6000803e3d6000fd5b505050506040513d601f19601f820116820180604052508101906136319190614c95565b101561367f5760405162461bcd60e51b815260206004820152601b60248201527f54686520636f6e747261637420686173206e6f2062616c616e636500000000006044820152606401611667565b60015460005460405163a9059cbb60e01b81526001600160a01b0391821660048201526024810185905291169063a9059cbb90604401602060405180830381600087803b1580156136cf57600080fd5b505af11580156136e3573d6000803e3d6000fd5b505050506040513d601f19601f82011682018060405250810190612ab89190614c5f565b60018160ff16111561374d5760405162461bcd60e51b815260206004820152600f60248201526e6d616e6f20696e636f72726563746160881b6044820152606401611667565b336000908152601b60205260409020805460ff16156137a45760405162461bcd60e51b81526020600482015260136024820152727961206573746173207265676973747261646f60681b6044820152606401611667565b601754600154604051636eb1769f60e11b81523360048201523060248201526001600160a01b039091169063dd62ed3e9060440160206040518083038186803b1580156137f057600080fd5b505afa158015613804573d6000803e3d6000fd5b505050506040513d601f19601f820116820180604052508101906138289190614c95565b10156138465760405162461bcd60e51b815260040161166790614e87565b6001546017546040516323b872dd60e01b815233600482015230602482015260448101919091526001600160a01b03909116906323b872dd90606401602060405180830381600087803b15801561389c57600080fd5b505af11580156138b0573d6000803e3d6000fd5b505050506040513d601f19601f820116820180604052508101906138d49190614c5f565b6138f05760405162461bcd60e51b815260040161166790614ee0565b602354600160b01b900460ff16156139905760015460235460175460405163a9059cbb60e01b81526001600160a01b039283166004820152602481019190915291169063a9059cbb90604401602060405180830381600087803b15801561395657600080fd5b505af115801561396a573d6000803e3d6000fd5b505050506040513d601f19601f8201168201806040525081019061398e9190614c5f565b505b805461ffff1916610101178155336000908152601c6020526040902080546001600160a01b0319166001600160a01b038516908117909155158015906139dd5750601154610100900460ff165b15613b91576001600160a01b0383166000908152601b60205260408120600a810180549192613a0b836150bc565b909155505060ff8316613ad657600e8101546001600160a01b0316613a4357600e810180546001600160a01b03191633179055613b8f565b6060613a4e816113b9565b600e83015481519192506001600160a01b0316908290600090613a7357613a736150ed565b60200260200101906001600160a01b031690816001600160a01b031681525050601b6000613aa083612093565b6001600160a01b031681526020810191909152604001600020600e810180546001600160a01b031916331790559150613b8f9050565b60128101546001600160a01b0316613b01576012810180546001600160a01b03191633179055613b8f565b6060613b0c816113b9565b601283015481519192506001600160a01b0316908290600090613b3157613b316150ed565b60200260200101906001600160a01b031690816001600160a01b031681525050601b6000613b5e836118e7565b6001600160a01b0316815260208101919091526040016000206012810180546001600160a01b031916331790559150505b505b60188054906000613ba1836150bc565b9091555050601f80546000908152601d6020908152604080832080546001600160a01b031916339081179091558454908452601e90925282208190559190613be8836150bc565b9190505550505050565b600080546001600160a01b03163314613c0a57600080fd5b50602080546001600160a01b0319166001600160a01b03831617905590565b60006113b36064611f87600a54611f8d600854611f87600160009054906101000a90046001600160a01b03166001600160a01b031663313ce5676040518163ffffffff1660e01b815260040160206040518083038186803b158015611f3d57600080fd5b600080546001600160a01b03163314613ca557600080fd5b600080546040516001600160a01b03909116914780156108fc02929091818181858888f19350505050158015613cdf573d6000803e3d6000fd5b5047905090565b6001600160a01b0381166000908152601b60205260408120805462010000900460ff16156119ce576000613d18611d35565b8260060154613d279190614f61565b905060008260060154836008015411613d44578260060154613d4a565b82600801545b90506000824211613d5b5742613d5d565b825b905080821015613da357613d6f611d35565b613d7983836150a5565b8560040154613d889190615086565b613d929190614f79565b613d9c9086614f61565b9450613db5565b6004840154613db29086614f61565b94505b50505050919050565b600080546001600160a01b03163314613dd657600080fd5b506011805460ff191682151517905590565b60008054819081906001600160a01b03163314613e0457600080fd5b6001600160a01b038616613e3457602180546001600160a01b03191690556023805460ff60a01b19169055613e65565b602180546001600160a01b0388166001600160a01b03199091161790556023805460ff60a01b1916600160a01b1790555b6001600160a01b038516613e9557602280546001600160a01b03191690556023805460ff60a81b19169055613ec6565b602280546001600160a01b0387166001600160a01b03199091161790556023805460ff60a81b1916600160a81b1790555b6001600160a01b038416613eeb5760238054600162ff000160a01b0319169055613f0f565b60238054600162ff000160a01b0319166001600160a01b03861617600160b01b1790555b50939492935090919050565b6000805481906001600160a01b03163314613f3557600080fd5b82600f8581548110613f4957613f496150ed565b90600052602060002090602091828204019190066101000a81548160ff0219169083151502179055508383915091509250929050565b600080546001600160a01b03163314613f9757600080fd5b6001821115613fda5760405162461bcd60e51b815260206004820152600f60248201526e6d616e6f20696e636f72726563746160881b6044820152606401611667565b600e548411801590613fec5750600084115b61402a5760405162461bcd60e51b815260206004820152600f60248201526e706c616e20696e636f72726563746f60881b6044820152606401611667565b600f848154811061403d5761403d6150ed565b90600052602060002090602091828204019190069054906101000a900460ff166140795760405162461bcd60e51b815260040161166790614eb6565b6001600160a01b0385166000908152601b60205260408120600e8054919291879081106140a8576140a86150ed565b90600052602060002001549050428260060181905550808260070160008282546140d29190614f61565b90915550506015546140e9906124bc906064614629565b8260040160008282546140fc9190614f61565b909155505060018201819055815462ff00001981166201000017835560ff166144d457815461ffff19166101011782556001600160a01b038781166000908152601c6020526040902080546001600160a01b03191691871691821790551580159061416e5750601154610100900460ff165b15614433576001600160a01b0385166000908152601b60205260408120600a81018054919261419c836150bc565b90915550508461427557600e8101546001600160a01b03166141da57600e810180546001600160a01b0319166001600160a01b038a1617905561433f565b60606141e5816113b9565b600e83015481519192506001600160a01b031690829060009061420a5761420a6150ed565b60200260200101906001600160a01b031690816001600160a01b031681525050601b600061423783612093565b6001600160a01b0390811682526020820192909252604001600020600e810180546001600160a01b031916928c1692909217909155915061433f9050565b60128101546001600160a01b03166142a9576012810180546001600160a01b0319166001600160a01b038a1617905561433f565b60606142b4816113b9565b601283015481519192506001600160a01b03169082906000906142d9576142d96150ed565b60200260200101906001600160a01b031690816001600160a01b031681525050601b6000614306836118e7565b6001600160a01b03908116825260208201929092526040016000206012810180546001600160a01b031916928c16929092179091559150505b6001600160a01b038881166000908152601c6020526040902054161580159061436a575060115460ff165b156143c8576143c88883600c8054806020026020016040519081016040528092919081815260200182805480156125755760200282019190600052602060002090815481526020019060010190808311612561575050505050614643565b601880549060006143d8836150bc565b9091555050601f80546000908152601d6020908152604080832080546001600160a01b0319166001600160a01b038e169081179091558454908452601e90925282208190559190614428836150bc565b9190505550506144bc565b6001600160a01b038781166000908152601c6020526040902054161580159061445e575060115460ff165b156144bc576144bc8782600d8054806020026020016040519081016040528092919081815260200182805480156125755760200282019190600052602060002090815481526020019060010190808311612561575050505050614643565b80601960008282546144ce9190614f61565b90915550505b5060019695505050505050565b6000805481906001600160a01b031633146144fb57600080fd5b5050600a829055600b8190559091565b6000546001600160a01b0316331461452257600080fd5b6001600160a01b03811661453557600080fd5b600080546040516001600160a01b03808516939216917f8be0079c531659141344cd1fd0a4f28419497f9722a3daafe3b4186f6b6457e091a3600080546001600160a01b0319166001600160a01b0392909216919091179055565b600080546001600160a01b031633146145a857600080fd5b50601281905590565b6000806145be8385614f61565b9050838110156145cd57600080fd5b9392505050565b6000828211156145e357600080fd5b60006145ef83856150a5565b949350505050565b600082614606575060006113b3565b60006146128385615086565b90508261461f8583614f79565b146145cd57600080fd5b600080821161463757600080fd5b60006145ef8385614f79565b6060614650848351611322565b90506000805b835181101561482e576000601b6000858481518110614677576146776150ed565b6020908102919091018101516001600160a01b03168252810191909152604001600020805490915060ff1680156146c857508482815181106146bb576146bb6150ed565b6020026020010151600014155b80156146da57508054610100900460ff165b1561481b5760006001600160a01b03168483815181106146fc576146fc6150ed565b60200260200101516001600160a01b03161461481557614744601054611f8787858151811061472d5761472d6150ed565b6020026020010151896145f790919063ffffffff16565b9250828160040154106147bf578281600401600082825461476591906150a5565b92505081905550828160020160008282546147809190614f61565b925050819055508281600301600082825461479b9190614f61565b9250508190555082601a60008282546147b49190614f61565b9091555061481b9050565b60006004820181905560028201805482906147db908290614f61565b909155505060048101546003820180546000906147f9908490614f61565b90915550506004810154601a80546000906147b4908490614f61565b5061482e565b5080614826816150bc565b915050614656565b505050505050565b82805482825590600052602060002090601f016020900481019282156148cb5791602002820160005b8382111561489c57835183826101000a81548160ff021916908315150217905550926020019260010160208160000104928301926001030261485f565b80156148c95782816101000a81549060ff021916905560010160208160000104928301926001030261489c565b505b506148d7929150614916565b5090565b8280548282559060005260206000209081019282156148cb579160200282015b828111156148cb5782518255916020019190600101906148fb565b5b808211156148d75760008155600101614917565b60006020828403121561493d57600080fd5b81356145cd81615119565b60008060006060848603121561495d57600080fd5b833561496881615119565b9250602084013561497881615119565b9150604084013561498881615119565b809150509250925092565b600080604083850312156149a657600080fd5b82356149b181615119565b946020939093013593505050565b600080600080608085870312156149d557600080fd5b84356149e081615119565b93506020850135925060408501356149f781615119565b9396929550929360600135925050565b600080600060608486031215614a1c57600080fd5b8335614a2781615119565b95602085013595506040909401359392505050565b60008060408385031215614a4f57600080fd5b8235614a5a81615119565b9150602083013560ff81168114614a7057600080fd5b809150509250929050565b60006020808385031215614a8e57600080fd5b823567ffffffffffffffff811115614aa557600080fd5b8301601f81018513614ab657600080fd5b8035614ac9614ac482614f3d565b614f0c565b80828252848201915084840188868560051b8701011115614ae957600080fd5b600094505b83851015614b15578035614b0181615119565b835260019490940193918501918501614aee565b50979650505050505050565b60006020808385031215614b3457600080fd5b823567ffffffffffffffff811115614b4b57600080fd5b8301601f81018513614b5c57600080fd5b8035614b6a614ac482614f3d565b80828252848201915084840188868560051b8701011115614b8a57600080fd5b600094505b83851015614b15578035614ba281615131565b835260019490940193918501918501614b8f565b60006020808385031215614bc957600080fd5b823567ffffffffffffffff811115614be057600080fd5b8301601f81018513614bf157600080fd5b8035614bff614ac482614f3d565b80828252848201915084840188868560051b8701011115614c1f57600080fd5b600094505b83851015614b15578035835260019490940193918501918501614c24565b600060208284031215614c5457600080fd5b81356145cd81615131565b600060208284031215614c7157600080fd5b81516145cd81615131565b600060208284031215614c8e57600080fd5b5035919050565b600060208284031215614ca757600080fd5b5051919050565b60008060408385031215614cc157600080fd5b823591506020830135614a7081615131565b60008060408385031215614ce657600080fd5b50508035926020909101359150565b6020808252825182820181905260009190848201906040850190845b81811015614d365783516001600160a01b031683529284019291840191600101614d11565b50909695505050505050565b6020808252825182820181905260009190848201906040850190845b81811015614d36578351151583529284019291840191600101614d5e565b6020808252825182820181905260009190848201906040850190845b81811015614d3657835183529284019291840191600101614d98565b8e151581528d151560208201528c151560408201526102a081018c60608301528b60808301528a60a08301528960c08301528860e08301528761010083015286610120830152856101408301528461016083015283610180830152614e746101a0830184805182526020810151602083015260408101516040830152606081015160018060a01b0380821660608501526080830151608085015260a083015160a085015260c083015160c08501528060e08401511660e085015250505050565b9f9e505050505050505050505050505050565b6020808252601590820152746170726f7661646f20696e737566696369656e746560581b604082015260600190565b60208082526010908201526f706c616e20646573616374697661646f60801b604082015260600190565b60208082526012908201527173616c646f20696e737566696369656e746560701b604082015260600190565b604051601f8201601f1916810167ffffffffffffffff81118282101715614f3557614f35615103565b604052919050565b600067ffffffffffffffff821115614f5757614f57615103565b5060051b60200190565b60008219821115614f7457614f746150d7565b500190565b600082614f9657634e487b7160e01b600052601260045260246000fd5b500490565b600181815b80851115614fd6578160001904821115614fbc57614fbc6150d7565b80851615614fc957918102915b93841c9390800290614fa0565b509250929050565b60006145cd8383600082614ff4575060016113b3565b81615001575060006113b3565b816001811461501757600281146150215761503d565b60019150506113b3565b60ff841115615032576150326150d7565b50506001821b6113b3565b5060208310610133831016604e8410600b8410161715615060575081810a6113b3565b61506a8383614f9b565b806000190482111561507e5761507e6150d7565b029392505050565b60008160001904831182151516156150a0576150a06150d7565b500290565b6000828210156150b7576150b76150d7565b500390565b60006000198214156150d0576150d06150d7565b5060010190565b634e487b7160e01b600052601160045260246000fd5b634e487b7160e01b600052603260045260246000fd5b634e487b7160e01b600052604160045260246000fd5b6001600160a01b038116811461512e57600080fd5b50565b801515811461512e57600080fdfea2646970667358221220c48e39d99fbeffd1fb70dc68b64fa50a6d58e0e2baaccba90d9fc1dadf777ea364736f6c63430008070033",
    "sourcePath": "c:/Users/STC/Documents/GitHub/USDT-Binario/contracts/BinariSystem.sol",
    "compiler": {
        "name": "solc",
        "version": "0.8.7+commit.e28d00a7"
    },
    "functionHashes": {
        "ChangeTokenOTRO(address)": "96ba5363",
        "ChangeTokenPrincipal(address)": "50da983f",
        "ChangeTokenSalida(address)": "6d038a03",
        "MIN_RETIRO()": "6c529279",
        "MIN_RETIRO_interno()": "4bdcd429",
        "active(uint256)": "8033d581",
        "actualizarNetwork(address[])": "1ce7f99b",
        "addPlan(uint256)": "6999c45e",
        "addressToId(address)": "cb0e0d7d",
        "allnetwork(address[])": "7faee047",
        "api()": "d2c18e0b",
        "asignarPlan(address,uint256,address,uint256)": "ebe690bd",
        "asignarPuntosBinarios(address,uint256,uint256)": "5a090c2d",
        "basePorcientos()": "faafa907",
        "buyPlan(uint256)": "a80b223b",
        "buyValue(uint256)": "c8065ede",
        "column(address,uint256)": "15e8392b",
        "controlBinario(bool)": "9d1a5ea1",
        "controlReferidos(bool)": "d8de4064",
        "dias()": "ab6db199",
        "handLeft(address)": "55465fa5",
        "handRigth(address)": "6a88e297",
        "idToAddress(uint256)": "2a2d0c47",
        "insertionLeft(address[])": "6bf199ff",
        "insertionRigth(address[])": "42ccc234",
        "investors(address)": "6f7bc9be",
        "lastUserId()": "348d4487",
        "maxTime()": "22e67e71",
        "owner()": "8da5cb5b",
        "padre(address)": "b35f0a8f",
        "payValue(uint256)": "67583cf8",
        "personasBinary(address)": "4e929b0f",
        "plans(uint256)": "b1620616",
        "plansLength()": "26837aa8",
        "porcent()": "4728f718",
        "porcentPuntosBinario()": "c2307ee6",
        "porcientoBuy()": "ce51abb7",
        "porcientoPay()": "7e8ff94d",
        "porcientos(uint256)": "28cca719",
        "precioRegistro()": "7db9e9c6",
        "primervez(uint256)": "725fc270",
        "profit(address)": "02550e4d",
        "rate()": "2c4e722e",
        "rate2()": "f555b815",
        "rateSell()": "68b058eb",
        "redimOTRO()": "8929cbc5",
        "redimSITE01()": "78f15671",
        "redimSITE02(uint256)": "b9be8cdc",
        "redimTRX()": "cdb8bb2a",
        "registro(address,uint8)": "c14b8361",
        "setActive(uint256,bool)": "e60a955d",
        "setActiveAll(bool[])": "4dbc9d15",
        "setBase(uint256)": "38e80f68",
        "setMIN_RETIRO(uint256)": "4de1be62",
        "setMaxTime(uint256)": "98b777e7",
        "setPlans(uint256,uint256)": "9496e6f8",
        "setPlansAll(uint256[])": "4e0e3323",
        "setPorcientos(uint256,uint256)": "1e403c35",
        "setPrimeravezPorcientos(uint256,uint256)": "54822522",
        "setPuntosPorcentajeBinario(uint256)": "64417c89",
        "setRates(uint256,uint256)": "ac6af280",
        "setRetorno(uint256)": "6589fa8a",
        "setTiempo(uint256)": "f90b3f5a",
        "setTiempoUnidades(uint256)": "2748d29b",
        "setWalletApi(address)": "c510c060",
        "setWalletstransfers(address,address,address)": "e506e1c0",
        "setporcientoBuyPay(uint256,uint256)": "edc2fe29",
        "setstate()": "85338e20",
        "sisBinario()": "6657a040",
        "sisReferidos()": "7f658166",
        "tiempo()": "50188c08",
        "tokenPago()": "16a64416",
        "tokenPricipal()": "b1390426",
        "totalInvested()": "5216aeec",
        "totalInvestors()": "29b8caff",
        "totalRefRewards()": "bfe0e020",
        "transfer1()": "343bfdff",
        "transfer2()": "248c44e8",
        "transfer3()": "21adf6a4",
        "transferOwnership(address)": "f2fde38b",
        "unidades()": "4b9b8203",
        "upGradePlan(uint256)": "72c5dd34",
        "wallet1()": "1a026c96",
        "wallet2()": "0b8d0a28",
        "wallet3()": "3c918bae",
        "withdraw()": "3ccfd60b",
        "withdrawToDeposit()": "a00a8c9b",
        "withdrawable(address)": "ce513b6f",
        "withdrawableBinary(address)": "a95b4df9"
    },
    "gasEstimates": {
        "creation": {
            "codeDepositCost": "4170600",
            "executionCost": "infinite",
            "totalCost": "infinite"
        },
        "external": {
            "": "253",
            "ChangeTokenOTRO(address)": "26909",
            "ChangeTokenPrincipal(address)": "51130",
            "ChangeTokenSalida(address)": "51077",
            "MIN_RETIRO()": "2472",
            "MIN_RETIRO_interno()": "2408",
            "active(uint256)": "6392",
            "actualizarNetwork(address[])": "infinite",
            "addPlan(uint256)": "infinite",
            "addressToId(address)": "2668",
            "allnetwork(address[])": "infinite",
            "api()": "2448",
            "asignarPlan(address,uint256,address,uint256)": "infinite",
            "asignarPuntosBinarios(address,uint256,uint256)": "infinite",
            "basePorcientos()": "2471",
            "buyPlan(uint256)": "infinite",
            "buyValue(uint256)": "infinite",
            "column(address,uint256)": "infinite",
            "controlBinario(bool)": "26800",
            "controlReferidos(bool)": "26858",
            "dias()": "2450",
            "handLeft(address)": "9043",
            "handRigth(address)": "9108",
            "idToAddress(uint256)": "2612",
            "insertionLeft(address[])": "infinite",
            "insertionRigth(address[])": "infinite",
            "investors(address)": "45975",
            "lastUserId()": "2385",
            "maxTime()": "2430",
            "owner()": "2427",
            "padre(address)": "2664",
            "payValue(uint256)": "infinite",
            "personasBinary(address)": "infinite",
            "plans(uint256)": "4665",
            "plansLength()": "2468",
            "porcent()": "2364",
            "porcentPuntosBinario()": "2384",
            "porcientoBuy()": "2384",
            "porcientoPay()": "2385",
            "porcientos(uint256)": "4666",
            "precioRegistro()": "2363",
            "primervez(uint256)": "4688",
            "profit(address)": "infinite",
            "rate()": "2452",
            "rate2()": "2427",
            "rateSell()": "6624",
            "redimOTRO()": "infinite",
            "redimSITE01()": "infinite",
            "redimSITE02(uint256)": "infinite",
            "redimTRX()": "infinite",
            "registro(address,uint8)": "infinite",
            "setActive(uint256,bool)": "30826",
            "setActiveAll(bool[])": "infinite",
            "setBase(uint256)": "24647",
            "setMIN_RETIRO(uint256)": "24692",
            "setMaxTime(uint256)": "24691",
            "setPlans(uint256,uint256)": "26983",
            "setPlansAll(uint256[])": "infinite",
            "setPorcientos(uint256,uint256)": "infinite",
            "setPrimeravezPorcientos(uint256,uint256)": "infinite",
            "setPuntosPorcentajeBinario(uint256)": "24647",
            "setRates(uint256,uint256)": "48921",
            "setRetorno(uint256)": "24669",
            "setTiempo(uint256)": "24689",
            "setTiempoUnidades(uint256)": "24604",
            "setWalletApi(address)": "26887",
            "setWalletstransfers(address,address,address)": "infinite",
            "setporcientoBuyPay(uint256,uint256)": "46790",
            "setstate()": "6707",
            "sisBinario()": "2477",
            "sisReferidos()": "2422",
            "tiempo()": "infinite",
            "tokenPago()": "2473",
            "tokenPricipal()": "2405",
            "totalInvested()": "2451",
            "totalInvestors()": "2408",
            "totalRefRewards()": "2451",
            "transfer1()": "2395",
            "transfer2()": "2484",
            "transfer3()": "2440",
            "transferOwnership(address)": "30504",
            "unidades()": "2386",
            "upGradePlan(uint256)": "infinite",
            "wallet1()": "2495",
            "wallet2()": "2429",
            "wallet3()": "2471",
            "withdraw()": "infinite",
            "withdrawToDeposit()": "infinite",
            "withdrawable(address)": "infinite",
            "withdrawableBinary(address)": "infinite"
        },
        "internal": {
            "rewardReferers(address,uint256,uint256[] memory)": "infinite"
        }
    }
}