{
    "contractName": "BinarySystem",
    "abi": [
        {
            "inputs": [],
            "stateMutability": "nonpayable",
            "type": "constructor"
        },
        {
            "anonymous": false,
            "inputs": [
                {
                    "indexed": true,
                    "internalType": "address",
                    "name": "previousOwner",
                    "type": "address"
                },
                {
                    "indexed": true,
                    "internalType": "address",
                    "name": "newOwner",
                    "type": "address"
                }
            ],
            "name": "OwnershipTransferred",
            "type": "event"
        },
        {
            "stateMutability": "payable",
            "type": "fallback"
        },
        {
            "inputs": [
                {
                    "internalType": "address",
                    "name": "_tokenTRC20",
                    "type": "address"
                }
            ],
            "name": "ChangeTokenOTRO",
            "outputs": [
                {
                    "internalType": "bool",
                    "name": "",
                    "type": "bool"
                }
            ],
            "stateMutability": "nonpayable",
            "type": "function"
        },
        {
            "inputs": [
                {
                    "internalType": "address",
                    "name": "_tokenTRC20",
                    "type": "address"
                }
            ],
            "name": "ChangeTokenPrincipal",
            "outputs": [
                {
                    "internalType": "bool",
                    "name": "",
                    "type": "bool"
                }
            ],
            "stateMutability": "nonpayable",
            "type": "function"
        },
        {
            "inputs": [
                {
                    "internalType": "address",
                    "name": "_tokenTRC20",
                    "type": "address"
                }
            ],
            "name": "ChangeTokenSalida",
            "outputs": [
                {
                    "internalType": "bool",
                    "name": "",
                    "type": "bool"
                }
            ],
            "stateMutability": "nonpayable",
            "type": "function"
        },
        {
            "inputs": [],
            "name": "MIN_RETIRO",
            "outputs": [
                {
                    "internalType": "uint256",
                    "name": "",
                    "type": "uint256"
                }
            ],
            "stateMutability": "view",
            "type": "function"
        },
        {
            "inputs": [],
            "name": "MIN_RETIRO_interno",
            "outputs": [
                {
                    "internalType": "uint256",
                    "name": "",
                    "type": "uint256"
                }
            ],
            "stateMutability": "view",
            "type": "function"
        },
        {
            "inputs": [
                {
                    "internalType": "uint256",
                    "name": "",
                    "type": "uint256"
                }
            ],
            "name": "active",
            "outputs": [
                {
                    "internalType": "bool",
                    "name": "",
                    "type": "bool"
                }
            ],
            "stateMutability": "view",
            "type": "function"
        },
        {
            "inputs": [
                {
                    "internalType": "address[]",
                    "name": "oldNetwork",
                    "type": "address[]"
                }
            ],
            "name": "actualizarNetwork",
            "outputs": [
                {
                    "internalType": "address[]",
                    "name": "",
                    "type": "address[]"
                }
            ],
            "stateMutability": "pure",
            "type": "function"
        },
        {
            "inputs": [
                {
                    "internalType": "uint256",
                    "name": "_value",
                    "type": "uint256"
                }
            ],
            "name": "addPlan",
            "outputs": [
                {
                    "internalType": "uint256[]",
                    "name": "",
                    "type": "uint256[]"
                }
            ],
            "stateMutability": "nonpayable",
            "type": "function"
        },
        {
            "inputs": [
                {
                    "internalType": "address",
                    "name": "",
                    "type": "address"
                }
            ],
            "name": "addressToId",
            "outputs": [
                {
                    "internalType": "uint256",
                    "name": "",
                    "type": "uint256"
                }
            ],
            "stateMutability": "view",
            "type": "function"
        },
        {
            "inputs": [
                {
                    "internalType": "address[]",
                    "name": "network",
                    "type": "address[]"
                }
            ],
            "name": "allnetwork",
            "outputs": [
                {
                    "internalType": "address[]",
                    "name": "",
                    "type": "address[]"
                }
            ],
            "stateMutability": "view",
            "type": "function"
        },
        {
            "inputs": [],
            "name": "api",
            "outputs": [
                {
                    "internalType": "address",
                    "name": "",
                    "type": "address"
                }
            ],
            "stateMutability": "view",
            "type": "function"
        },
        {
            "inputs": [
                {
                    "internalType": "address",
                    "name": "_user",
                    "type": "address"
                },
                {
                    "internalType": "uint256",
                    "name": "_plan",
                    "type": "uint256"
                },
                {
                    "internalType": "address",
                    "name": "_sponsor",
                    "type": "address"
                },
                {
                    "internalType": "uint256",
                    "name": "_hand",
                    "type": "uint256"
                }
            ],
            "name": "asignarPlan",
            "outputs": [
                {
                    "internalType": "bool",
                    "name": "",
                    "type": "bool"
                }
            ],
            "stateMutability": "nonpayable",
            "type": "function"
        },
        {
            "inputs": [
                {
                    "internalType": "address",
                    "name": "_user",
                    "type": "address"
                },
                {
                    "internalType": "uint256",
                    "name": "_puntosLeft",
                    "type": "uint256"
                },
                {
                    "internalType": "uint256",
                    "name": "_puntosRigth",
                    "type": "uint256"
                }
            ],
            "name": "asignarPuntosBinarios",
            "outputs": [
                {
                    "internalType": "bool",
                    "name": "",
                    "type": "bool"
                }
            ],
            "stateMutability": "nonpayable",
            "type": "function"
        },
        {
            "inputs": [],
            "name": "basePorcientos",
            "outputs": [
                {
                    "internalType": "uint256",
                    "name": "",
                    "type": "uint256"
                }
            ],
            "stateMutability": "view",
            "type": "function"
        },
        {
            "inputs": [
                {
                    "internalType": "uint256",
                    "name": "_plan",
                    "type": "uint256"
                }
            ],
            "name": "buyPlan",
            "outputs": [],
            "stateMutability": "nonpayable",
            "type": "function"
        },
        {
            "inputs": [
                {
                    "internalType": "uint256",
                    "name": "_value",
                    "type": "uint256"
                }
            ],
            "name": "buyValue",
            "outputs": [
                {
                    "internalType": "uint256",
                    "name": "",
                    "type": "uint256"
                }
            ],
            "stateMutability": "view",
            "type": "function"
        },
        {
            "inputs": [
                {
                    "internalType": "address",
                    "name": "yo",
                    "type": "address"
                },
                {
                    "internalType": "uint256",
                    "name": "_largo",
                    "type": "uint256"
                }
            ],
            "name": "column",
            "outputs": [
                {
                    "internalType": "address[]",
                    "name": "",
                    "type": "address[]"
                }
            ],
            "stateMutability": "view",
            "type": "function"
        },
        {
            "inputs": [
                {
                    "internalType": "bool",
                    "name": "_true_false",
                    "type": "bool"
                }
            ],
            "name": "controlBinario",
            "outputs": [
                {
                    "internalType": "bool",
                    "name": "",
                    "type": "bool"
                }
            ],
            "stateMutability": "nonpayable",
            "type": "function"
        },
        {
            "inputs": [
                {
                    "internalType": "bool",
                    "name": "_true_false",
                    "type": "bool"
                }
            ],
            "name": "controlReferidos",
            "outputs": [
                {
                    "internalType": "bool",
                    "name": "",
                    "type": "bool"
                }
            ],
            "stateMutability": "nonpayable",
            "type": "function"
        },
        {
            "inputs": [],
            "name": "dias",
            "outputs": [
                {
                    "internalType": "uint256",
                    "name": "",
                    "type": "uint256"
                }
            ],
            "stateMutability": "view",
            "type": "function"
        },
        {
            "inputs": [
                {
                    "internalType": "address",
                    "name": "_user",
                    "type": "address"
                }
            ],
            "name": "handLeft",
            "outputs": [
                {
                    "internalType": "uint256",
                    "name": "extra",
                    "type": "uint256"
                },
                {
                    "internalType": "uint256",
                    "name": "lost",
                    "type": "uint256"
                },
                {
                    "internalType": "uint256",
                    "name": "reclamados",
                    "type": "uint256"
                },
                {
                    "internalType": "address",
                    "name": "referer",
                    "type": "address"
                }
            ],
            "stateMutability": "view",
            "type": "function"
        },
        {
            "inputs": [
                {
                    "internalType": "address",
                    "name": "_user",
                    "type": "address"
                }
            ],
            "name": "handRigth",
            "outputs": [
                {
                    "internalType": "uint256",
                    "name": "extra",
                    "type": "uint256"
                },
                {
                    "internalType": "uint256",
                    "name": "lost",
                    "type": "uint256"
                },
                {
                    "internalType": "uint256",
                    "name": "reclamados",
                    "type": "uint256"
                },
                {
                    "internalType": "address",
                    "name": "referer",
                    "type": "address"
                }
            ],
            "stateMutability": "view",
            "type": "function"
        },
        {
            "inputs": [
                {
                    "internalType": "uint256",
                    "name": "",
                    "type": "uint256"
                }
            ],
            "name": "idToAddress",
            "outputs": [
                {
                    "internalType": "address",
                    "name": "",
                    "type": "address"
                }
            ],
            "stateMutability": "view",
            "type": "function"
        },
        {
            "inputs": [
                {
                    "internalType": "address[]",
                    "name": "network",
                    "type": "address[]"
                }
            ],
            "name": "insertionLeft",
            "outputs": [
                {
                    "internalType": "address",
                    "name": "wallet",
                    "type": "address"
                }
            ],
            "stateMutability": "view",
            "type": "function"
        },
        {
            "inputs": [
                {
                    "internalType": "address[]",
                    "name": "network",
                    "type": "address[]"
                }
            ],
            "name": "insertionRigth",
            "outputs": [
                {
                    "internalType": "address",
                    "name": "wallet",
                    "type": "address"
                }
            ],
            "stateMutability": "view",
            "type": "function"
        },
        {
            "inputs": [
                {
                    "internalType": "address",
                    "name": "",
                    "type": "address"
                }
            ],
            "name": "investors",
            "outputs": [
                {
                    "internalType": "bool",
                    "name": "registered",
                    "type": "bool"
                },
                {
                    "internalType": "bool",
                    "name": "recompensa",
                    "type": "bool"
                },
                {
                    "internalType": "bool",
                    "name": "pasivo",
                    "type": "bool"
                },
                {
                    "internalType": "uint256",
                    "name": "plan",
                    "type": "uint256"
                },
                {
                    "internalType": "uint256",
                    "name": "balanceRef",
                    "type": "uint256"
                },
                {
                    "internalType": "uint256",
                    "name": "totalRef",
                    "type": "uint256"
                },
                {
                    "internalType": "uint256",
                    "name": "amount",
                    "type": "uint256"
                },
                {
                    "internalType": "uint256",
                    "name": "almacen",
                    "type": "uint256"
                },
                {
                    "internalType": "uint256",
                    "name": "inicio",
                    "type": "uint256"
                },
                {
                    "internalType": "uint256",
                    "name": "invested",
                    "type": "uint256"
                },
                {
                    "internalType": "uint256",
                    "name": "paidAt",
                    "type": "uint256"
                },
                {
                    "internalType": "uint256",
                    "name": "withdrawn",
                    "type": "uint256"
                },
                {
                    "internalType": "uint256",
                    "name": "directos",
                    "type": "uint256"
                },
                {
                    "components": [
                        {
                            "internalType": "uint256",
                            "name": "lReclamados",
                            "type": "uint256"
                        },
                        {
                            "internalType": "uint256",
                            "name": "lLost",
                            "type": "uint256"
                        },
                        {
                            "internalType": "uint256",
                            "name": "lExtra",
                            "type": "uint256"
                        },
                        {
                            "internalType": "address",
                            "name": "lReferer",
                            "type": "address"
                        },
                        {
                            "internalType": "uint256",
                            "name": "rReclamados",
                            "type": "uint256"
                        },
                        {
                            "internalType": "uint256",
                            "name": "rLost",
                            "type": "uint256"
                        },
                        {
                            "internalType": "uint256",
                            "name": "rExtra",
                            "type": "uint256"
                        },
                        {
                            "internalType": "address",
                            "name": "rReferer",
                            "type": "address"
                        }
                    ],
                    "internalType": "struct BinarySystem.Hand",
                    "name": "hands",
                    "type": "tuple"
                }
            ],
            "stateMutability": "view",
            "type": "function"
        },
        {
            "inputs": [],
            "name": "lastUserId",
            "outputs": [
                {
                    "internalType": "uint256",
                    "name": "",
                    "type": "uint256"
                }
            ],
            "stateMutability": "view",
            "type": "function"
        },
        {
            "inputs": [],
            "name": "maxTime",
            "outputs": [
                {
                    "internalType": "uint256",
                    "name": "",
                    "type": "uint256"
                }
            ],
            "stateMutability": "view",
            "type": "function"
        },
        {
            "inputs": [],
            "name": "owner",
            "outputs": [
                {
                    "internalType": "address payable",
                    "name": "",
                    "type": "address"
                }
            ],
            "stateMutability": "view",
            "type": "function"
        },
        {
            "inputs": [
                {
                    "internalType": "address",
                    "name": "",
                    "type": "address"
                }
            ],
            "name": "padre",
            "outputs": [
                {
                    "internalType": "address",
                    "name": "",
                    "type": "address"
                }
            ],
            "stateMutability": "view",
            "type": "function"
        },
        {
            "inputs": [
                {
                    "internalType": "uint256",
                    "name": "_value",
                    "type": "uint256"
                }
            ],
            "name": "payValue",
            "outputs": [
                {
                    "internalType": "uint256",
                    "name": "",
                    "type": "uint256"
                }
            ],
            "stateMutability": "view",
            "type": "function"
        },
        {
            "inputs": [
                {
                    "internalType": "address",
                    "name": "any_user",
                    "type": "address"
                }
            ],
            "name": "personasBinary",
            "outputs": [
                {
                    "internalType": "uint256",
                    "name": "left",
                    "type": "uint256"
                },
                {
                    "internalType": "uint256",
                    "name": "pLeft",
                    "type": "uint256"
                },
                {
                    "internalType": "uint256",
                    "name": "rigth",
                    "type": "uint256"
                },
                {
                    "internalType": "uint256",
                    "name": "pRigth",
                    "type": "uint256"
                }
            ],
            "stateMutability": "view",
            "type": "function"
        },
        {
            "inputs": [
                {
                    "internalType": "uint256",
                    "name": "",
                    "type": "uint256"
                }
            ],
            "name": "plans",
            "outputs": [
                {
                    "internalType": "uint256",
                    "name": "",
                    "type": "uint256"
                }
            ],
            "stateMutability": "view",
            "type": "function"
        },
        {
            "inputs": [],
            "name": "plansLength",
            "outputs": [
                {
                    "internalType": "uint8",
                    "name": "",
                    "type": "uint8"
                }
            ],
            "stateMutability": "view",
            "type": "function"
        },
        {
            "inputs": [],
            "name": "porcent",
            "outputs": [
                {
                    "internalType": "uint256",
                    "name": "",
                    "type": "uint256"
                }
            ],
            "stateMutability": "view",
            "type": "function"
        },
        {
            "inputs": [],
            "name": "porcentPuntosBinario",
            "outputs": [
                {
                    "internalType": "uint256",
                    "name": "",
                    "type": "uint256"
                }
            ],
            "stateMutability": "view",
            "type": "function"
        },
        {
            "inputs": [],
            "name": "porcientoBuy",
            "outputs": [
                {
                    "internalType": "uint256",
                    "name": "",
                    "type": "uint256"
                }
            ],
            "stateMutability": "view",
            "type": "function"
        },
        {
            "inputs": [],
            "name": "porcientoPay",
            "outputs": [
                {
                    "internalType": "uint256",
                    "name": "",
                    "type": "uint256"
                }
            ],
            "stateMutability": "view",
            "type": "function"
        },
        {
            "inputs": [
                {
                    "internalType": "uint256",
                    "name": "",
                    "type": "uint256"
                }
            ],
            "name": "porcientos",
            "outputs": [
                {
                    "internalType": "uint256",
                    "name": "",
                    "type": "uint256"
                }
            ],
            "stateMutability": "view",
            "type": "function"
        },
        {
            "inputs": [],
            "name": "precioRegistro",
            "outputs": [
                {
                    "internalType": "uint256",
                    "name": "",
                    "type": "uint256"
                }
            ],
            "stateMutability": "view",
            "type": "function"
        },
        {
            "inputs": [
                {
                    "internalType": "uint256",
                    "name": "",
                    "type": "uint256"
                }
            ],
            "name": "primervez",
            "outputs": [
                {
                    "internalType": "uint256",
                    "name": "",
                    "type": "uint256"
                }
            ],
            "stateMutability": "view",
            "type": "function"
        },
        {
            "inputs": [
                {
                    "internalType": "address",
                    "name": "any_user",
                    "type": "address"
                }
            ],
            "name": "profit",
            "outputs": [
                {
                    "internalType": "uint256",
                    "name": "",
                    "type": "uint256"
                },
                {
                    "internalType": "uint256",
                    "name": "",
                    "type": "uint256"
                },
                {
                    "internalType": "uint256",
                    "name": "",
                    "type": "uint256"
                },
                {
                    "internalType": "uint256",
                    "name": "",
                    "type": "uint256"
                }
            ],
            "stateMutability": "view",
            "type": "function"
        },
        {
            "inputs": [],
            "name": "rate",
            "outputs": [
                {
                    "internalType": "uint256",
                    "name": "",
                    "type": "uint256"
                }
            ],
            "stateMutability": "view",
            "type": "function"
        },
        {
            "inputs": [],
            "name": "rate2",
            "outputs": [
                {
                    "internalType": "uint256",
                    "name": "",
                    "type": "uint256"
                }
            ],
            "stateMutability": "view",
            "type": "function"
        },
        {
            "inputs": [],
            "name": "rateSell",
            "outputs": [
                {
                    "internalType": "uint256",
                    "name": "",
                    "type": "uint256"
                }
            ],
            "stateMutability": "view",
            "type": "function"
        },
        {
            "inputs": [],
            "name": "redimOTRO",
            "outputs": [
                {
                    "internalType": "uint256",
                    "name": "",
                    "type": "uint256"
                }
            ],
            "stateMutability": "nonpayable",
            "type": "function"
        },
        {
            "inputs": [],
            "name": "redimSITE01",
            "outputs": [
                {
                    "internalType": "uint256",
                    "name": "",
                    "type": "uint256"
                }
            ],
            "stateMutability": "nonpayable",
            "type": "function"
        },
        {
            "inputs": [
                {
                    "internalType": "uint256",
                    "name": "_value",
                    "type": "uint256"
                }
            ],
            "name": "redimSITE02",
            "outputs": [
                {
                    "internalType": "uint256",
                    "name": "",
                    "type": "uint256"
                }
            ],
            "stateMutability": "nonpayable",
            "type": "function"
        },
        {
            "inputs": [],
            "name": "redimTRX",
            "outputs": [
                {
                    "internalType": "uint256",
                    "name": "",
                    "type": "uint256"
                }
            ],
            "stateMutability": "nonpayable",
            "type": "function"
        },
        {
            "inputs": [
                {
                    "internalType": "address",
                    "name": "_sponsor",
                    "type": "address"
                },
                {
                    "internalType": "uint8",
                    "name": "_hand",
                    "type": "uint8"
                }
            ],
            "name": "registro",
            "outputs": [],
            "stateMutability": "nonpayable",
            "type": "function"
        },
        {
            "inputs": [
                {
                    "internalType": "uint256",
                    "name": "_level",
                    "type": "uint256"
                },
                {
                    "internalType": "bool",
                    "name": "_value",
                    "type": "bool"
                }
            ],
            "name": "setActive",
            "outputs": [
                {
                    "internalType": "uint256",
                    "name": "",
                    "type": "uint256"
                },
                {
                    "internalType": "bool",
                    "name": "",
                    "type": "bool"
                }
            ],
            "stateMutability": "nonpayable",
            "type": "function"
        },
        {
            "inputs": [
                {
                    "internalType": "bool[]",
                    "name": "_values",
                    "type": "bool[]"
                }
            ],
            "name": "setActiveAll",
            "outputs": [
                {
                    "internalType": "bool[]",
                    "name": "",
                    "type": "bool[]"
                }
            ],
            "stateMutability": "nonpayable",
            "type": "function"
        },
        {
            "inputs": [
                {
                    "internalType": "uint256",
                    "name": "_base100",
                    "type": "uint256"
                }
            ],
            "name": "setBase",
            "outputs": [
                {
                    "internalType": "uint256",
                    "name": "",
                    "type": "uint256"
                }
            ],
            "stateMutability": "nonpayable",
            "type": "function"
        },
        {
            "inputs": [
                {
                    "internalType": "uint256",
                    "name": "_min",
                    "type": "uint256"
                }
            ],
            "name": "setMIN_RETIRO",
            "outputs": [
                {
                    "internalType": "uint256",
                    "name": "",
                    "type": "uint256"
                }
            ],
            "stateMutability": "nonpayable",
            "type": "function"
        },
        {
            "inputs": [
                {
                    "internalType": "uint256",
                    "name": "_porcentajemaximoParahacerUpgrade",
                    "type": "uint256"
                }
            ],
            "name": "setMaxTime",
            "outputs": [
                {
                    "internalType": "uint256",
                    "name": "",
                    "type": "uint256"
                }
            ],
            "stateMutability": "nonpayable",
            "type": "function"
        },
        {
            "inputs": [
                {
                    "internalType": "uint256",
                    "name": "_level",
                    "type": "uint256"
                },
                {
                    "internalType": "uint256",
                    "name": "_value",
                    "type": "uint256"
                }
            ],
            "name": "setPlans",
            "outputs": [
                {
                    "internalType": "uint256",
                    "name": "",
                    "type": "uint256"
                },
                {
                    "internalType": "uint256",
                    "name": "",
                    "type": "uint256"
                }
            ],
            "stateMutability": "nonpayable",
            "type": "function"
        },
        {
            "inputs": [
                {
                    "internalType": "uint256[]",
                    "name": "_values",
                    "type": "uint256[]"
                }
            ],
            "name": "setPlansAll",
            "outputs": [
                {
                    "internalType": "uint256[]",
                    "name": "",
                    "type": "uint256[]"
                }
            ],
            "stateMutability": "nonpayable",
            "type": "function"
        },
        {
            "inputs": [
                {
                    "internalType": "uint256",
                    "name": "_nivel",
                    "type": "uint256"
                },
                {
                    "internalType": "uint256",
                    "name": "_value",
                    "type": "uint256"
                }
            ],
            "name": "setPorcientos",
            "outputs": [
                {
                    "internalType": "uint256[]",
                    "name": "",
                    "type": "uint256[]"
                }
            ],
            "stateMutability": "nonpayable",
            "type": "function"
        },
        {
            "inputs": [
                {
                    "internalType": "uint256",
                    "name": "_nivel",
                    "type": "uint256"
                },
                {
                    "internalType": "uint256",
                    "name": "_value",
                    "type": "uint256"
                }
            ],
            "name": "setPrimeravezPorcientos",
            "outputs": [
                {
                    "internalType": "uint256[]",
                    "name": "",
                    "type": "uint256[]"
                }
            ],
            "stateMutability": "nonpayable",
            "type": "function"
        },
        {
            "inputs": [
                {
                    "internalType": "uint256",
                    "name": "_porcentaje",
                    "type": "uint256"
                }
            ],
            "name": "setPuntosPorcentajeBinario",
            "outputs": [
                {
                    "internalType": "uint256",
                    "name": "",
                    "type": "uint256"
                }
            ],
            "stateMutability": "nonpayable",
            "type": "function"
        },
        {
            "inputs": [
                {
                    "internalType": "uint256",
                    "name": "_rateBuy",
                    "type": "uint256"
                },
                {
                    "internalType": "uint256",
                    "name": "_rateSell",
                    "type": "uint256"
                }
            ],
            "name": "setRates",
            "outputs": [],
            "stateMutability": "nonpayable",
            "type": "function"
        },
        {
            "inputs": [
                {
                    "internalType": "uint256",
                    "name": "_porcentaje",
                    "type": "uint256"
                }
            ],
            "name": "setRetorno",
            "outputs": [
                {
                    "internalType": "uint256",
                    "name": "",
                    "type": "uint256"
                }
            ],
            "stateMutability": "nonpayable",
            "type": "function"
        },
        {
            "inputs": [
                {
                    "internalType": "uint256",
                    "name": "_dias",
                    "type": "uint256"
                }
            ],
            "name": "setTiempo",
            "outputs": [
                {
                    "internalType": "uint256",
                    "name": "",
                    "type": "uint256"
                }
            ],
            "stateMutability": "nonpayable",
            "type": "function"
        },
        {
            "inputs": [
                {
                    "internalType": "uint256",
                    "name": "_unidades",
                    "type": "uint256"
                }
            ],
            "name": "setTiempoUnidades",
            "outputs": [
                {
                    "internalType": "uint256",
                    "name": "",
                    "type": "uint256"
                }
            ],
            "stateMutability": "nonpayable",
            "type": "function"
        },
        {
            "inputs": [
                {
                    "internalType": "address",
                    "name": "_wallet",
                    "type": "address"
                }
            ],
            "name": "setWalletApi",
            "outputs": [
                {
                    "internalType": "address",
                    "name": "",
                    "type": "address"
                }
            ],
            "stateMutability": "nonpayable",
            "type": "function"
        },
        {
            "inputs": [
                {
                    "internalType": "address",
                    "name": "_wallet1",
                    "type": "address"
                },
                {
                    "internalType": "address",
                    "name": "_wallet2",
                    "type": "address"
                },
                {
                    "internalType": "address",
                    "name": "_wallet3",
                    "type": "address"
                }
            ],
            "name": "setWalletstransfers",
            "outputs": [
                {
                    "internalType": "address",
                    "name": "",
                    "type": "address"
                },
                {
                    "internalType": "address",
                    "name": "",
                    "type": "address"
                },
                {
                    "internalType": "address",
                    "name": "",
                    "type": "address"
                }
            ],
            "stateMutability": "nonpayable",
            "type": "function"
        },
        {
            "inputs": [
                {
                    "internalType": "uint256",
                    "name": "_buy",
                    "type": "uint256"
                },
                {
                    "internalType": "uint256",
                    "name": "_pay",
                    "type": "uint256"
                }
            ],
            "name": "setporcientoBuyPay",
            "outputs": [
                {
                    "internalType": "uint256",
                    "name": "",
                    "type": "uint256"
                },
                {
                    "internalType": "uint256",
                    "name": "",
                    "type": "uint256"
                }
            ],
            "stateMutability": "nonpayable",
            "type": "function"
        },
        {
            "inputs": [],
            "name": "setstate",
            "outputs": [
                {
                    "internalType": "uint256",
                    "name": "Investors",
                    "type": "uint256"
                },
                {
                    "internalType": "uint256",
                    "name": "Invested",
                    "type": "uint256"
                },
                {
                    "internalType": "uint256",
                    "name": "RefRewards",
                    "type": "uint256"
                }
            ],
            "stateMutability": "view",
            "type": "function"
        },
        {
            "inputs": [],
            "name": "sisBinario",
            "outputs": [
                {
                    "internalType": "bool",
                    "name": "",
                    "type": "bool"
                }
            ],
            "stateMutability": "view",
            "type": "function"
        },
        {
            "inputs": [],
            "name": "sisReferidos",
            "outputs": [
                {
                    "internalType": "bool",
                    "name": "",
                    "type": "bool"
                }
            ],
            "stateMutability": "view",
            "type": "function"
        },
        {
            "inputs": [],
            "name": "tiempo",
            "outputs": [
                {
                    "internalType": "uint256",
                    "name": "",
                    "type": "uint256"
                }
            ],
            "stateMutability": "view",
            "type": "function"
        },
        {
            "inputs": [],
            "name": "tokenPago",
            "outputs": [
                {
                    "internalType": "address",
                    "name": "",
                    "type": "address"
                }
            ],
            "stateMutability": "view",
            "type": "function"
        },
        {
            "inputs": [],
            "name": "tokenPricipal",
            "outputs": [
                {
                    "internalType": "address",
                    "name": "",
                    "type": "address"
                }
            ],
            "stateMutability": "view",
            "type": "function"
        },
        {
            "inputs": [],
            "name": "totalInvested",
            "outputs": [
                {
                    "internalType": "uint256",
                    "name": "",
                    "type": "uint256"
                }
            ],
            "stateMutability": "view",
            "type": "function"
        },
        {
            "inputs": [],
            "name": "totalInvestors",
            "outputs": [
                {
                    "internalType": "uint256",
                    "name": "",
                    "type": "uint256"
                }
            ],
            "stateMutability": "view",
            "type": "function"
        },
        {
            "inputs": [],
            "name": "totalRefRewards",
            "outputs": [
                {
                    "internalType": "uint256",
                    "name": "",
                    "type": "uint256"
                }
            ],
            "stateMutability": "view",
            "type": "function"
        },
        {
            "inputs": [],
            "name": "transfer1",
            "outputs": [
                {
                    "internalType": "bool",
                    "name": "",
                    "type": "bool"
                }
            ],
            "stateMutability": "view",
            "type": "function"
        },
        {
            "inputs": [],
            "name": "transfer2",
            "outputs": [
                {
                    "internalType": "bool",
                    "name": "",
                    "type": "bool"
                }
            ],
            "stateMutability": "view",
            "type": "function"
        },
        {
            "inputs": [],
            "name": "transfer3",
            "outputs": [
                {
                    "internalType": "bool",
                    "name": "",
                    "type": "bool"
                }
            ],
            "stateMutability": "view",
            "type": "function"
        },
        {
            "inputs": [
                {
                    "internalType": "address payable",
                    "name": "newOwner",
                    "type": "address"
                }
            ],
            "name": "transferOwnership",
            "outputs": [],
            "stateMutability": "nonpayable",
            "type": "function"
        },
        {
            "inputs": [],
            "name": "unidades",
            "outputs": [
                {
                    "internalType": "uint256",
                    "name": "",
                    "type": "uint256"
                }
            ],
            "stateMutability": "view",
            "type": "function"
        },
        {
            "inputs": [
                {
                    "internalType": "uint256",
                    "name": "_plan",
                    "type": "uint256"
                }
            ],
            "name": "upGradePlan",
            "outputs": [],
            "stateMutability": "nonpayable",
            "type": "function"
        },
        {
            "inputs": [],
            "name": "wallet1",
            "outputs": [
                {
                    "internalType": "address",
                    "name": "",
                    "type": "address"
                }
            ],
            "stateMutability": "view",
            "type": "function"
        },
        {
            "inputs": [],
            "name": "wallet2",
            "outputs": [
                {
                    "internalType": "address",
                    "name": "",
                    "type": "address"
                }
            ],
            "stateMutability": "view",
            "type": "function"
        },
        {
            "inputs": [],
            "name": "wallet3",
            "outputs": [
                {
                    "internalType": "address",
                    "name": "",
                    "type": "address"
                }
            ],
            "stateMutability": "view",
            "type": "function"
        },
        {
            "inputs": [],
            "name": "withdraw",
            "outputs": [],
            "stateMutability": "nonpayable",
            "type": "function"
        },
        {
            "inputs": [],
            "name": "withdrawToDeposit",
            "outputs": [],
            "stateMutability": "nonpayable",
            "type": "function"
        },
        {
            "inputs": [
                {
                    "internalType": "address",
                    "name": "any_user",
                    "type": "address"
                }
            ],
            "name": "withdrawable",
            "outputs": [
                {
                    "internalType": "uint256",
                    "name": "amount",
                    "type": "uint256"
                }
            ],
            "stateMutability": "view",
            "type": "function"
        },
        {
            "inputs": [
                {
                    "internalType": "address",
                    "name": "any_user",
                    "type": "address"
                }
            ],
            "name": "withdrawableBinary",
            "outputs": [
                {
                    "internalType": "uint256",
                    "name": "left",
                    "type": "uint256"
                },
                {
                    "internalType": "uint256",
                    "name": "rigth",
                    "type": "uint256"
                },
                {
                    "internalType": "uint256",
                    "name": "amount",
                    "type": "uint256"
                }
            ],
            "stateMutability": "view",
            "type": "function"
        },
        {
            "stateMutability": "payable",
            "type": "receive"
        }
    ],
    "bytecode": "620f4240600481905560088190556009556064600a819055600b8190556101206040526080908152600060a081905260c081905260e0819052610100526200004c90600c906005620002ce565b506040805160a0810182526000808252602082018190529181018290526060810182905260808101919091526200008890600d906005620002ce565b5060408051610200810182526000815263017d784060208201526302faf080918101919091526305f5e10060608201526311e1a3006080820152631dcd650060a0820152633b9aca0060c0820152637735940060e082015264012a05f20061010082015264174876e80061012082015264e8d4a510006101408201526501d1a94a20006101608201526502ba7def300061018082015265048c273950006101a082015266038d7ea4c680006101c082015266071afd498d00006101e08201526200015790600e90601062000323565b50604080516102008101825260008152600160208201819052918101829052606081018290526080810182905260a0810182905260c0810182905260e08101829052610100810182905261012081018290526101408101829052610160810182905261018081018290526101a081018290526101c081018290526101e0810191909152620001ea90600f9060106200036c565b506103e86010556011805461ffff19166101011790556001601281905562015180601355605a60145560c8601555600a601655624c4b406017556018556002601f553480156200023957600080fd5b5060008054336001600160a01b031991821681178355808352601b602090815260408085206023805486168517905560228054861685179055602180548616851790558254851684178355805461ffff19166101011790557f9de6abd965d55c3bb0cdbf6fa175050624c6ff8fe86f682dc08f2a450ede22788054909416909217909255601e90915290206001905562000425565b82805482825590600052602060002090810192821562000311579160200282015b8281111562000311578251829060ff16905591602001919060010190620002ef565b506200031f9291506200040e565b5090565b82805482825590600052602060002090810192821562000311579160200282015b8281111562000311578251829066ffffffffffffff1690559160200191906001019062000344565b82805482825590600052602060002090601f01602090048101928215620003115791602002820160005b83821115620003d557835183826101000a81548160ff021916908315150217905550926020019260010160208160000104928301926001030262000396565b8015620004045782816101000a81549060ff0219169055600101602081600001049283019260010302620003d5565b50506200031f9291505b5b808211156200031f57600081556001016200040f565b61511880620004356000396000f3fe6080604052600436106104aa5760003560e01c80636d038a0311610269578063b13904261161014e578063ce513b6f116100c6578063ebe690bd11610082578063ebe690bd1461112d578063edc2fe291461114d578063f2fde38b1461116d578063f555b8151461118d578063f90b3f5a146111a3578063faafa907146111c357005b8063ce513b6f14611038578063ce51abb714611058578063d2c18e0b1461106e578063d8de40641461108e578063e506e1c0146110ae578063e60a955d146110f857005b8063c14b836111610115578063c14b836114610f80578063c2307ee614610fa0578063c510c06014610fb6578063c8065ede14610fd6578063cb0e0d7d14610ff6578063cdb8bb2a1461102357005b8063b139042614610ed4578063b162061614610ef4578063b35f0a8f14610f14578063b9be8cdc14610f4a578063bfe0e02014610f6a57005b80638929cbc5116101e15780639d1a5ea1116101a85780639d1a5ea114610e29578063a00a8c9b14610e49578063a80b223b14610e5e578063a95b4df914610e7e578063ab6db19914610e9e578063ac6af28014610eb457005b80638929cbc514610d7f5780638da5cb5b14610d945780639496e6f814610db457806396ba536314610de957806398b777e714610e0957005b80637db9e9c6116102305780637db9e9c614610cc75780637e8ff94d14610cdd5780637f65816614610cf35780637faee04714610d0d5780638033d58114610d2d57806385338e2014610d4d57005b80636d038a0314610ae55780636f7bc9be14610b05578063725fc27014610c7257806372c5dd3414610c9257806378f1567114610cb257005b80634728f7181161038f57806355465fa51161030757806367583cf8116102ce57806367583cf814610a0657806368b058eb14610a265780636999c45e14610a3b5780636a88e29714610a5b5780636bf199ff14610aaf5780636c52927914610acf57005b806355465fa51461090a5780635a090c2d1461098757806364417c89146109a75780636589fa8a146109c75780636657a040146109e757005b80634e0e3323116103565780634e0e33231461085f5780634e929b0f1461087f57806350188c081461089f57806350da983f146108b45780635216aeec146108d457806354822522146108ea57005b80634728f718146107d05780634b9b8203146107e65780634bdcd429146107fc5780634dbc9d15146108125780634de1be621461083f57005b80632748d29b11610422578063343bfdff116103e9578063343bfdff14610724578063348d44871461074557806338e80f681461075b5780633c918bae1461077b5780633ccfd60b1461079b57806342ccc234146107b057005b80632748d29b1461068257806328cca719146106a257806329b8caff146106c25780632a2d0c47146106d85780632c4e722e1461070e57005b80631ce7f99b116104715780631ce7f99b1461059d5780631e403c35146105bd57806321adf6a4146105ea57806322e67e711461061b578063248c44e81461063f57806326837aa81461066057005b806302550e4d146104b35780630b8d0a28146104f857806315e8392b1461053057806316a644161461055d5780631a026c961461057d57005b366104b157005b005b3480156104bf57600080fd5b506104d36104ce3660046148ce565b6111d9565b6040805194855260208501939093529183015260608201526080015b60405180910390f35b34801561050457600080fd5b50602254610518906001600160a01b031681565b6040516001600160a01b0390911681526020016104ef565b34801561053c57600080fd5b5061055061054b366004614936565b611322565b6040516104ef9190614c98565b34801561056957600080fd5b50600754610518906001600160a01b031681565b34801561058957600080fd5b50602154610518906001600160a01b031681565b3480156105a957600080fd5b506105506105b8366004614a1e565b6113b9565b3480156105c957600080fd5b506105dd6105d8366004614c76565b611478565b6040516104ef9190614d1f565b3480156105f657600080fd5b5060235461060b90600160b01b900460ff1681565b60405190151581526020016104ef565b34801561062757600080fd5b5061063160145481565b6040519081526020016104ef565b34801561064b57600080fd5b5060235461060b90600160a81b900460ff1681565b34801561066c57600080fd5b50600e5460405160ff90911681526020016104ef565b34801561068e57600080fd5b5061063161069d366004614c1f565b61150d565b3480156106ae57600080fd5b506106316106bd366004614c1f565b61152e565b3480156106ce57600080fd5b5061063160185481565b3480156106e457600080fd5b506105186106f3366004614c1f565b601d602052600090815260409020546001600160a01b031681565b34801561071a57600080fd5b5061063160085481565b34801561073057600080fd5b5060235461060b90600160a01b900460ff1681565b34801561075157600080fd5b50610631601f5481565b34801561076757600080fd5b50610631610776366004614c1f565b61154f565b34801561078757600080fd5b50602354610518906001600160a01b031681565b3480156107a757600080fd5b506104b1611570565b3480156107bc57600080fd5b506105186107cb366004614a1e565b6118e7565b3480156107dc57600080fd5b5061063160155481565b3480156107f257600080fd5b5061063160135481565b34801561080857600080fd5b5061063160055481565b34801561081e57600080fd5b5061083261082d366004614ac4565b6119d4565b6040516104ef9190614ce5565b34801561084b57600080fd5b5061063161085a366004614c1f565b611a7a565b34801561086b57600080fd5b506105dd61087a366004614b59565b611a9b565b34801561088b57600080fd5b506104d361089a3660046148ce565b611b20565b3480156108ab57600080fd5b50610631611d21565b3480156108c057600080fd5b5061060b6108cf3660046148ce565b611d3f565b3480156108e057600080fd5b5061063160195481565b3480156108f657600080fd5b506105dd610905366004614c76565b611d85565b34801561091657600080fd5b5061095e6109253660046148ce565b6001600160a01b039081166000908152601b60205260409020600d810154600c820154600b830154600e90930154919490939190911690565b604080519485526020850193909352918301526001600160a01b031660608201526080016104ef565b34801561099357600080fd5b5061060b6109a23660046149aa565b611e18565b3480156109b357600080fd5b506106316109c2366004614c1f565b611e89565b3480156109d357600080fd5b506106316109e2366004614c1f565b611eaa565b3480156109f357600080fd5b5060115461060b90610100900460ff1681565b348015610a1257600080fd5b50610631610a21366004614c1f565b611ecb565b348015610a3257600080fd5b50610631611f7f565b348015610a4757600080fd5b506105dd610a56366004614c1f565b611f9a565b348015610a6757600080fd5b5061095e610a763660046148ce565b6001600160a01b039081166000908152601b6020526040902060118101546010820154600f830154601290930154919490939190911690565b348015610abb57600080fd5b50610518610aca366004614a1e565b61207f565b348015610adb57600080fd5b5061063160045481565b348015610af157600080fd5b5061060b610b003660046148ce565b612154565b348015610b1157600080fd5b50610c58610b203660046148ce565b601b6020528060005260406000206000915090508060000160009054906101000a900460ff16908060000160019054906101000a900460ff16908060000160029054906101000a900460ff169080600101549080600201549080600301549080600401549080600501549080600601549080600701549080600801549080600901549080600a01549080600b01604051806101000160405290816000820154815260200160018201548152602001600282015481526020016003820160009054906101000a90046001600160a01b03166001600160a01b03166001600160a01b031681526020016004820154815260200160058201548152602001600682015481526020016007820160009054906101000a90046001600160a01b03166001600160a01b03166001600160a01b03168152505090508e565b6040516104ef9e9d9c9b9a99989796959493929190614d57565b348015610c7e57600080fd5b50610631610c8d366004614c1f565b61219f565b348015610c9e57600080fd5b506104b1610cad366004614c1f565b6121af565b348015610cbe57600080fd5b50610631612575565b348015610cd357600080fd5b5061063160175481565b348015610ce957600080fd5b50610631600b5481565b348015610cff57600080fd5b5060115461060b9060ff1681565b348015610d1957600080fd5b50610550610d28366004614a1e565b61269a565b348015610d3957600080fd5b5061060b610d48366004614c1f565b61285a565b348015610d5957600080fd5b50601854601954601a545b604080519384526020840192909252908201526060016104ef565b348015610d8b57600080fd5b5061063161288e565b348015610da057600080fd5b50600054610518906001600160a01b031681565b348015610dc057600080fd5b50610dd4610dcf366004614c76565b61295f565b604080519283526020830191909152016104ef565b348015610df557600080fd5b5061060b610e043660046148ce565b6129ae565b348015610e1557600080fd5b50610631610e24366004614c1f565b6129eb565b348015610e3557600080fd5b5061060b610e44366004614be5565b612a0c565b348015610e5557600080fd5b506104b1612a3b565b348015610e6a57600080fd5b506104b1610e79366004614c1f565b612bbb565b348015610e8a57600080fd5b50610d64610e993660046148ce565b6131d5565b348015610eaa57600080fd5b5061063160125481565b348015610ec057600080fd5b506104b1610ecf366004614c76565b6134be565b348015610ee057600080fd5b50600654610518906001600160a01b031681565b348015610f0057600080fd5b50610631610f0f366004614c1f565b613531565b348015610f2057600080fd5b50610518610f2f3660046148ce565b601c602052600090815260409020546001600160a01b031681565b348015610f5657600080fd5b50610631610f65366004614c1f565b613541565b348015610f7657600080fd5b50610631601a5481565b348015610f8c57600080fd5b506104b1610f9b3660046149df565b6136aa565b348015610fac57600080fd5b5061063160165481565b348015610fc257600080fd5b50610518610fd13660046148ce565b613b95565b348015610fe257600080fd5b50610631610ff1366004614c1f565b613bcc565b34801561100257600080fd5b506106316110113660046148ce565b601e6020526000908152604090205481565b34801561102f57600080fd5b50610631613c30565b34801561104457600080fd5b506106316110533660046148ce565b613c89565b34801561106457600080fd5b50610631600a5481565b34801561107a57600080fd5b50602054610518906001600160a01b031681565b34801561109a57600080fd5b5061060b6110a9366004614be5565b613d61565b3480156110ba57600080fd5b506110ce6110c93660046148eb565b613d8b565b604080516001600160a01b03948516815292841660208401529216918101919091526060016104ef565b34801561110457600080fd5b50611118611113366004614c51565b613ebe565b604080519283529015156020830152016104ef565b34801561113957600080fd5b5061060b611148366004614962565b613f22565b34801561115957600080fd5b50610dd4611168366004614c76565b614484565b34801561117957600080fd5b506104b16111883660046148ce565b6144ae565b34801561119957600080fd5b5061063160095481565b3480156111af57600080fd5b506106316111be366004614c1f565b614533565b3480156111cf57600080fd5b5061063160105481565b6001600160a01b0381166000908152601b6020526040812060048101546002820154839283928392839182918280806112118d6131d5565b97509093509150821580159061122657508115155b801561123157508515155b80156112425750600288600a015410155b156112a45785851061126b576112588686615048565b94506112648688614f04565b965061127c565b600094506112798588614f04565b96505b42611293611288611d21565b60068b015490614554565b106112a0575060016112a4565b5060025b6112ad8d613c89565b85106112e2576112bc8d613c89565b6112c69086615048565b94506112d18d613c89565b6112db9088614f04565b96506112f3565b600094506112f08588614f04565b96505b6112fd8488614f04565b965087600501548761130f9190614f04565b9d929c50909a5098509650505050505050565b60608060005b838110156113af57611339826113b9565b6001600160a01b038087166000908152601c60205260409020548251929450169083908390811061136c5761136c615090565b6001600160a01b039283166020918202929092018101919091529581166000908152601c90965260409095205490941693806113a78161505f565b915050611328565b5090505b92915050565b60606000825160016113cb9190614f04565b67ffffffffffffffff8111156113e3576113e36150a6565b60405190808252806020026020018201604052801561140c578160200160208202803683370190505b50905060005b83518110156114715783818151811061142d5761142d615090565b602002602001015182828151811061144757611447615090565b6001600160a01b0390921660209283029190910190910152806114698161505f565b915050611412565b5092915050565b6000546060906001600160a01b0316331461149257600080fd5b81600d84815481106114a6576114a6615090565b9060005260206000200181905550600d80548060200260200160405190810160405280929190818152602001828054801561150057602002820191906000526020600020905b8154815260200190600101908083116114ec575b5050505050905092915050565b600080546001600160a01b0316331461152557600080fd5b50601381905590565b600d818154811061153e57600080fd5b600091825260209091200154905081565b600080546001600160a01b0316331461156757600080fd5b50601081905590565b336000818152601b602052604081209181908190819061158f906111d9565b929650909450925090506115a284611ecb565b6002546040516370a0823160e01b81523060048201526001600160a01b03909116906370a082319060240160206040518083038186803b1580156115e557600080fd5b505afa1580156115f9573d6000803e3d6000fd5b505050506040513d601f19601f8201168201806040525081019061161d9190614c38565b10156116705760405162461bcd60e51b815260206004820152601b60248201527f54686520636f6e747261637420686173206e6f2062616c616e6365000000000060448201526064015b60405180910390fd5b6004548410156116ce5760405162461bcd60e51b8152602060048201526024808201527f546865206d696e696d756d207769746864726177616c206c696d69742072656160448201526318da195960e21b6064820152608401611667565b6002546001600160a01b031663a9059cbb336116e987611ecb565b6040516001600160e01b031960e085901b1681526001600160a01b0390921660048301526024820152604401602060405180830381600087803b15801561172f57600080fd5b505af1158015611743573d6000803e3d6000fd5b505050506040513d601f19601f820116820180604052508101906117679190614c02565b5080600114156117f057818310156117b7578285600b0160000160008282546117909190614f04565b9091555050600f850180548491906000906117ac908490614f04565b909155506117f09050565b8185600b0160000160008282546117ce9190614f04565b9091555050600f850180548391906000906117ea908490614f04565b90915550505b8060021415611878578183101561183f578285600b0160010160008282546118189190614f04565b9091555050601085018054849190600090611834908490614f04565b909155506118789050565b8185600b0160010160008282546118569190614f04565b9091555050601085018054839190600090611872908490614f04565b90915550505b6118968560050154866002015461188f9190614f04565b8590614577565b8560040160008282546118a99190615048565b92505081905550838560090160008282546118c49190614f04565b909155505042600886015550506000600284018190556005909301929092555050565b6000805b82518110156119c4576000601b600085848151811061190c5761190c615090565b6020908102919091018101516001600160a01b03908116835290820192909252604001600020601281015490925016806119645784838151811061195257611952615090565b60200260200101519350505050919050565b61196d856113b9565b945080856001875161197f9190615048565b8151811061198f5761198f615090565b60200260200101906001600160a01b031690816001600160a01b031681525050505080806119bc9061505f565b9150506118eb565b506119ce826118e7565b50919050565b6000546060906001600160a01b031633146119ee57600080fd5b8151611a0190600f9060208501906147d9565b50600f805480602002602001604051908101604052809291908181526020018280548015611a6e57602002820191906000526020600020906000905b825461010083900a900460ff161515815260206001928301818104948501949093039092029101808411611a3d5790505b50505050509050919050565b600080546001600160a01b03163314611a9257600080fd5b50600481905590565b6000546060906001600160a01b03163314611ab557600080fd5b8151611ac890600e90602085019061487e565b50600e805480602002602001604051908101604052809291908181526020018280548015611a6e57602002820191906000526020600020905b815481526020019060010190808311611b015750505050509050919050565b6001600160a01b038082166000908152601b60205260408120600e810154919283928392839290911615611c2a576060611b59816113b9565b600e83015481519192506001600160a01b0316908290600090611b7e57611b7e615090565b60200260200101906001600160a01b031690816001600160a01b031681525050611ba78161269a565b905060005b8151811015611c2757601b6000838381518110611bcb57611bcb615090565b60200260200101516001600160a01b03166001600160a01b031681526020019081526020016000209250826007015487611c059190614f04565b965085611c118161505f565b9650508080611c1f9061505f565b915050611bac565b50505b60128101546001600160a01b031615611d19576060611c48816113b9565b601283015481519192506001600160a01b0316908290600090611c6d57611c6d615090565b60200260200101906001600160a01b031690816001600160a01b031681525050611c968161269a565b905060005b8151811015611d1657601b6000838381518110611cba57611cba615090565b60200260200101516001600160a01b03166001600160a01b031681526020019081526020016000209250826007015485611cf49190614f04565b945083611d008161505f565b9450508080611d0e9061505f565b915050611c9b565b50505b509193509193565b6000611d3a60135460125461459a90919063ffffffff16565b905090565b600080546001600160a01b03163314611d5757600080fd5b50600180546001600160a01b0383166001600160a01b03199182168117835560068054909216179055919050565b6000546060906001600160a01b03163314611d9f57600080fd5b81600c8481548110611db357611db3615090565b9060005260206000200181905550600c80548060200260200160405190810160405280929190818152602001828054801561150057602002820191906000526020600020908154815260200190600101908083116114ec575050505050905092915050565b600080546001600160a01b03163314611e3057600080fd5b6001600160a01b0384166000908152601b60205260408120600d8101805491928692611e5d908490614f04565b9091555050601181018054849190600090611e79908490614f04565b9091555060019695505050505050565b600080546001600160a01b03163314611ea157600080fd5b50601681905590565b600080546001600160a01b03163314611ec257600080fd5b50601581905590565b60006113b36064611f73600b54611f79611ee3611f7f565b6002546040805163313ce56760e01b81529051611f73926001600160a01b03169163313ce567916004808301926020929190829003018186803b158015611f2957600080fd5b505afa158015611f3d573d6000803e3d6000fd5b505050506040513d601f19601f82011682018060405250810190611f619190614c38565b611f6c90600a614f81565b899061459a565b906145cc565b9061459a565b600060095460085414611f93575060095490565b5060085490565b6000546060906001600160a01b03163314611fb457600080fd5b600e8054600181810183557fbb7b4a454dc3493923482f07822329ed19e8244eff582cc204f8554c3620c3fd909101849055600f8054918201815560005260208082047f8d1108e10bcb7c27dddfc02ed9d693a074039d026cf4ea4240b40f7d581ac80201805460ff601f9094166101000a9384021916909217909155815460408051828402810184019091528181529291830182828015611a6e5760200282019190600052602060002090815481526020019060010190808311611b015750505050509050919050565b6000805b825181101561214a576000601b60008584815181106120a4576120a4615090565b6020908102919091018101516001600160a01b03908116835290820192909252604001600020600e81015490925016806120ea5784838151811061195257611952615090565b6120f3856113b9565b94508085600187516121059190615048565b8151811061211557612115615090565b60200260200101906001600160a01b031690816001600160a01b031681525050505080806121429061505f565b915050612083565b506119ce8261207f565b600080546001600160a01b0316331461216c57600080fd5b50600280546001600160a01b0383166001600160a01b031991821681179092556007805490911690911790556001919050565b600c818154811061153e57600080fd5b336000908152601b602052604090206006810154158015906121f15750426121ee6121e36064611f73601454611f79611d21565b600684015490614554565b10155b1561256c57806001015482116122605760405162461bcd60e51b815260206004820152602e60248201527f7469656e65207175652073657220756e20706c616e206d61796f72207061726160448201526d206861636572207570677261646560901b6064820152608401611667565b600f828154811061227357612273615090565b90600052602060002090602091828204019190069054906101000a900460ff166122af5760405162461bcd60e51b815260040161166790614e59565b60006122e58260010154600e85815481106122cc576122cc615090565b906000526020600020015461457790919063ffffffff16565b90506122f081613bcc565b600154604051636eb1769f60e11b81523360048201523060248201526001600160a01b039091169063dd62ed3e9060440160206040518083038186803b15801561233957600080fd5b505afa15801561234d573d6000803e3d6000fd5b505050506040513d601f19601f820116820180604052508101906123719190614c38565b101561238f5760405162461bcd60e51b815260040161166790614e2a565b6001546001600160a01b03166323b872dd33306123ab85613bcc565b6040516001600160e01b031960e086901b1681526001600160a01b0393841660048201529290911660248301526044820152606401602060405180830381600087803b1580156123fa57600080fd5b505af115801561240e573d6000803e3d6000fd5b505050506040513d601f19601f820116820180604052508101906124329190614c02565b61244e5760405162461bcd60e51b815260040161166790614e83565b426006830155600e80548490811061246857612468615090565b60009182526020909120015460018301556015546124929061248b9060646145cc565b829061459a565b8260040160008282546124a59190614f04565b92505081905550808260070160008282546124c09190614f04565b9091555050336000908152601c60205260409020546001600160a01b0316158015906124ee575060115460ff165b1561254e5761254e3382600d80548060200260200160405190810160405280929190818152602001828054801561254457602002820191906000526020600020905b815481526020019060010190808311612530575b50505050506145e6565b80601960008282546125609190614f04565b90915550612571915050565b600080fd5b5050565b600080546001600160a01b0316331461258d57600080fd5b6001546040516370a0823160e01b81523060048201526000916001600160a01b0316906370a082319060240160206040518083038186803b1580156125d157600080fd5b505afa1580156125e5573d6000803e3d6000fd5b505050506040513d601f19601f820116820180604052508101906126099190614c38565b60015460005460405163a9059cbb60e01b81526001600160a01b03918216600482015260248101849052929350169063a9059cbb906044015b602060405180830381600087803b15801561265c57600080fd5b505af1158015612670573d6000803e3d6000fd5b505050506040513d601f19601f820116820180604052508101906126949190614c02565b50905090565b606060005b8251811015612853576000601b60008584815181106126c0576126c0615090565b6020908102919091018101516001600160a01b039081168352908201929092526040016000908120600e810154601282015491945083169216905b86518110156127865786818151811061271657612716615090565b60200260200101516001600160a01b0316836001600160a01b0316141561273c57600092505b86818151811061274e5761274e615090565b60200260200101516001600160a01b0316826001600160a01b0316141561277457600091505b8061277e8161505f565b9150506126fb565b506001600160a01b038216156127e25761279f866113b9565b95508186600188516127b19190615048565b815181106127c1576127c1615090565b60200260200101906001600160a01b031690816001600160a01b0316815250505b6001600160a01b0381161561283d576127fa866113b9565b955080866001885161280c9190615048565b8151811061281c5761281c615090565b60200260200101906001600160a01b031690816001600160a01b0316815250505b505050808061284b9061505f565b91505061269f565b5090919050565b600f818154811061286a57600080fd5b9060005260206000209060209182820401919006915054906101000a900460ff1681565b600080546001600160a01b031633146128a657600080fd5b6003546040516370a0823160e01b81523060048201526000916001600160a01b0316906370a082319060240160206040518083038186803b1580156128ea57600080fd5b505afa1580156128fe573d6000803e3d6000fd5b505050506040513d601f19601f820116820180604052508101906129229190614c38565b60035460005460405163a9059cbb60e01b81526001600160a01b03918216600482015260248101849052929350169063a9059cbb90604401612642565b6000805481906001600160a01b0316331461297957600080fd5b612987836305f5e100615029565b600e858154811061299a5761299a615090565b600091825260209091200155509192909150565b600080546001600160a01b031633146129c657600080fd5b50600380546001600160a01b0383166001600160a01b03199091161790556001919050565b600080546001600160a01b03163314612a0357600080fd5b50601481905590565b600080546001600160a01b03163314612a2457600080fd5b506011805461ff0019166101008315150217905590565b336000818152601b6020526040812091819081908190612a5a906111d9565b929650909450925090506001811415612aec5781831015612ab3578285600b016000016000828254612a8c9190614f04565b9091555050600f85018054849190600090612aa8908490614f04565b90915550612aec9050565b8185600b016000016000828254612aca9190614f04565b9091555050600f85018054839190600090612ae6908490614f04565b90915550505b8060021415612b745781831015612b3b578285600b016001016000828254612b149190614f04565b9091555050601085018054849190600090612b30908490614f04565b90915550612b749050565b8185600b016001016000828254612b529190614f04565b9091555050601085018054839190600090612b6e908490614f04565b90915550505b612b8b8560050154866002015461188f9190614f04565b856004016000828254612b9e9190615048565b909155505050505060058201554260088201556000600290910155565b600e548111801590612bcd5750600081115b612c0b5760405162461bcd60e51b815260206004820152600f60248201526e706c616e20696e636f72726563746f60881b6044820152606401611667565b600f8181548110612c1e57612c1e615090565b90600052602060002090602091828204019190069054906101000a900460ff16612c5a5760405162461bcd60e51b815260040161166790614e59565b336000908152601b6020526040902060068101541580612c84575042612c816121e3611d21565b11155b80612c9157506004810154155b8015612c9e5750805460ff165b1561256c576000600e8381548110612cb857612cb8615090565b90600052602060002001549050612cce81613bcc565b600154604051636eb1769f60e11b81523360048201523060248201526001600160a01b039091169063dd62ed3e9060440160206040518083038186803b158015612d1757600080fd5b505afa158015612d2b573d6000803e3d6000fd5b505050506040513d601f19601f82011682018060405250810190612d4f9190614c38565b1015612d6d5760405162461bcd60e51b815260040161166790614e2a565b6001546001600160a01b03166323b872dd3330612d8985613bcc565b6040516001600160e01b031960e086901b1681526001600160a01b0393841660048201529290911660248301526044820152606401602060405180830381600087803b158015612dd857600080fd5b505af1158015612dec573d6000803e3d6000fd5b505050506040513d601f19601f82011682018060405250810190612e109190614c02565b612e2c5760405162461bcd60e51b815260040161166790614e83565b336000908152601c60205260409020546001600160a01b031615801590612e55575060115460ff165b15612f1a576001820154612ec157612ebc3382600c80548060200260200160405190810160405280929190818152602001828054801561254457602002820191906000526020600020908154815260200190600101908083116125305750505050506145e6565b612f1a565b612f1a3382600d80548060200260200160405190810160405280929190818152602001828054801561254457602002820191906000526020600020908154815260200190600101908083116125305750505050506145e6565b42826006018190555080826007016000828254612f379190614f04565b9091555050601554612f4e9061248b9060646145cc565b826004016000828254612f619190614f04565b909155505060018201819055815462ff000019166201000017825560198054829190600090612f91908490614f04565b9091555050602354600160a01b900460ff1615613054576001546021546001600160a01b039182169163a9059cbb9116612fd46064611f73600a611f7988613bcc565b6040516001600160e01b031960e085901b1681526001600160a01b0390921660048301526024820152604401602060405180830381600087803b15801561301a57600080fd5b505af115801561302e573d6000803e3d6000fd5b505050506040513d601f19601f820116820180604052508101906130529190614c02565b505b602354600160a81b900460ff1615613112576001546022546001600160a01b039182169163a9059cbb91166130926064611f736007611f7988613bcc565b6040516001600160e01b031960e085901b1681526001600160a01b0390921660048301526024820152604401602060405180830381600087803b1580156130d857600080fd5b505af11580156130ec573d6000803e3d6000fd5b505050506040513d601f19601f820116820180604052508101906131109190614c02565b505b602354600160b01b900460ff16156131d0576001546023546001600160a01b039182169163a9059cbb91166131506064611f73600a611f7988613bcc565b6040516001600160e01b031960e085901b1681526001600160a01b0390921660048301526024820152604401602060405180830381600087803b15801561319657600080fd5b505af11580156131aa573d6000803e3d6000fd5b505050506040513d601f19601f820116820180604052508101906131ce9190614c02565b505b505050565b6001600160a01b038082166000908152601b60205260408120600e81015491928392839291829116156132d057606061320d816113b9565b600e84015481519192506001600160a01b031690829060009061323257613232615090565b60200260200101906001600160a01b031690816001600160a01b03168152505061325b8161269a565b905060005b81518110156132cd57601b600083838151811061327f5761327f615090565b60200260200101516001600160a01b03166001600160a01b0316815260200190815260200160002093508360070154876132b99190614f04565b9650806132c58161505f565b915050613260565b50505b600d8201546132df9086614f04565b600c830154600b8401549196506132f69190614554565b6133009086615048565b60128301549095506001600160a01b0316156133e4576060613321816113b9565b601284015481519192506001600160a01b031690829060009061334657613346615090565b60200260200101906001600160a01b031690816001600160a01b03168152505061336f8161269a565b905060005b81518110156133e157601b600083838151811061339357613393615090565b60200260200101516001600160a01b03166001600160a01b0316815260200190815260200160002093508360070154866133cd9190614f04565b9550806133d98161505f565b915050613374565b50505b60118201546133f39085614f04565b6010830154600f84015491955061340a9190614554565b6134149085615048565b93508385101561346f57806004015461343d6064611f736016548961459a90919063ffffffff16565b116134635761345c6064611f736016548861459a90919063ffffffff16565b92506134b5565b806004015492506134b5565b806004015461348e6064611f736016548861459a90919063ffffffff16565b116134ad5761345c6064611f736016548761459a90919063ffffffff16565b806004015492505b50509193909250565b6000546001600160a01b03163314806134e157506020546001600160a01b031633145b6135265760405162461bcd60e51b81526020600482015260166024820152752737903a34b2b732b99030baba37b934bd30b1b4b7b760511b6044820152606401611667565b600891909155600955565b600e818154811061153e57600080fd5b600080546001600160a01b0316331461355957600080fd5b6001546040516370a0823160e01b815230600482015283916001600160a01b0316906370a082319060240160206040518083038186803b15801561359c57600080fd5b505afa1580156135b0573d6000803e3d6000fd5b505050506040513d601f19601f820116820180604052508101906135d49190614c38565b10156136225760405162461bcd60e51b815260206004820152601b60248201527f54686520636f6e747261637420686173206e6f2062616c616e636500000000006044820152606401611667565b60015460005460405163a9059cbb60e01b81526001600160a01b0391821660048201526024810185905291169063a9059cbb90604401602060405180830381600087803b15801561367257600080fd5b505af1158015613686573d6000803e3d6000fd5b505050506040513d601f19601f820116820180604052508101906128539190614c02565b60018160ff1611156136f05760405162461bcd60e51b815260206004820152600f60248201526e6d616e6f20696e636f72726563746160881b6044820152606401611667565b336000908152601b60205260409020805460ff16156137475760405162461bcd60e51b81526020600482015260136024820152727961206573746173207265676973747261646f60681b6044820152606401611667565b601754600154604051636eb1769f60e11b81523360048201523060248201526001600160a01b039091169063dd62ed3e9060440160206040518083038186803b15801561379357600080fd5b505afa1580156137a7573d6000803e3d6000fd5b505050506040513d601f19601f820116820180604052508101906137cb9190614c38565b10156137e95760405162461bcd60e51b815260040161166790614e2a565b6001546017546040516323b872dd60e01b815233600482015230602482015260448101919091526001600160a01b03909116906323b872dd90606401602060405180830381600087803b15801561383f57600080fd5b505af1158015613853573d6000803e3d6000fd5b505050506040513d601f19601f820116820180604052508101906138779190614c02565b6138935760405162461bcd60e51b815260040161166790614e83565b602354600160b01b900460ff16156139335760015460235460175460405163a9059cbb60e01b81526001600160a01b039283166004820152602481019190915291169063a9059cbb90604401602060405180830381600087803b1580156138f957600080fd5b505af115801561390d573d6000803e3d6000fd5b505050506040513d601f19601f820116820180604052508101906139319190614c02565b505b805461ffff1916610101178155336000908152601c6020526040902080546001600160a01b0319166001600160a01b038516908117909155158015906139805750601154610100900460ff165b15613b34576001600160a01b0383166000908152601b60205260408120600a8101805491926139ae8361505f565b909155505060ff8316613a7957600e8101546001600160a01b03166139e657600e810180546001600160a01b03191633179055613b32565b60606139f1816113b9565b600e83015481519192506001600160a01b0316908290600090613a1657613a16615090565b60200260200101906001600160a01b031690816001600160a01b031681525050601b6000613a438361207f565b6001600160a01b031681526020810191909152604001600020600e810180546001600160a01b031916331790559150613b329050565b60128101546001600160a01b0316613aa4576012810180546001600160a01b03191633179055613b32565b6060613aaf816113b9565b601283015481519192506001600160a01b0316908290600090613ad457613ad4615090565b60200260200101906001600160a01b031690816001600160a01b031681525050601b6000613b01836118e7565b6001600160a01b0316815260208101919091526040016000206012810180546001600160a01b031916331790559150505b505b60188054906000613b448361505f565b9091555050601f80546000908152601d6020908152604080832080546001600160a01b031916339081179091558454908452601e90925282208190559190613b8b8361505f565b9190505550505050565b600080546001600160a01b03163314613bad57600080fd5b50602080546001600160a01b0319166001600160a01b03831617905590565b60006113b36064611f73600a54611f79600854611f73600160009054906101000a90046001600160a01b03166001600160a01b031663313ce5676040518163ffffffff1660e01b815260040160206040518083038186803b158015611f2957600080fd5b600080546001600160a01b03163314613c4857600080fd5b600080546040516001600160a01b03909116914780156108fc02929091818181858888f19350505050158015613c82573d6000803e3d6000fd5b5047905090565b6001600160a01b0381166000908152601b60205260408120805462010000900460ff16156119ce576000613cbb611d21565b8260060154613cca9190614f04565b905060008260060154836008015411613ce7578260060154613ced565b82600801545b90506000824211613cfe5742613d00565b825b905080821015613d4657613d12611d21565b613d1c8383615048565b8560040154613d2b9190615029565b613d359190614f1c565b613d3f9086614f04565b9450613d58565b6004840154613d559086614f04565b94505b50505050919050565b600080546001600160a01b03163314613d7957600080fd5b506011805460ff191682151517905590565b60008054819081906001600160a01b03163314613da757600080fd5b6001600160a01b038616613dd757602180546001600160a01b03191690556023805460ff60a01b19169055613e08565b602180546001600160a01b0388166001600160a01b03199091161790556023805460ff60a01b1916600160a01b1790555b6001600160a01b038516613e3857602280546001600160a01b03191690556023805460ff60a81b19169055613e69565b602280546001600160a01b0387166001600160a01b03199091161790556023805460ff60a81b1916600160a81b1790555b6001600160a01b038416613e8e5760238054600162ff000160a01b0319169055613eb2565b60238054600162ff000160a01b0319166001600160a01b03861617600160b01b1790555b50939492935090919050565b6000805481906001600160a01b03163314613ed857600080fd5b82600f8581548110613eec57613eec615090565b90600052602060002090602091828204019190066101000a81548160ff0219169083151502179055508383915091509250929050565b600080546001600160a01b03163314613f3a57600080fd5b6001821115613f7d5760405162461bcd60e51b815260206004820152600f60248201526e6d616e6f20696e636f72726563746160881b6044820152606401611667565b600e548411801590613f8f5750600084115b613fcd5760405162461bcd60e51b815260206004820152600f60248201526e706c616e20696e636f72726563746f60881b6044820152606401611667565b600f8481548110613fe057613fe0615090565b90600052602060002090602091828204019190069054906101000a900460ff1661401c5760405162461bcd60e51b815260040161166790614e59565b6001600160a01b0385166000908152601b60205260408120600e80549192918790811061404b5761404b615090565b90600052602060002001549050428260060181905550808260070160008282546140759190614f04565b909155505060155461408c9061248b9060646145cc565b82600401600082825461409f9190614f04565b909155505060018201819055815462ff00001981166201000017835560ff1661447757815461ffff19166101011782556001600160a01b038781166000908152601c6020526040902080546001600160a01b0319169187169182179055158015906141115750601154610100900460ff165b156143d6576001600160a01b0385166000908152601b60205260408120600a81018054919261413f8361505f565b90915550508461421857600e8101546001600160a01b031661417d57600e810180546001600160a01b0319166001600160a01b038a161790556142e2565b6060614188816113b9565b600e83015481519192506001600160a01b03169082906000906141ad576141ad615090565b60200260200101906001600160a01b031690816001600160a01b031681525050601b60006141da8361207f565b6001600160a01b0390811682526020820192909252604001600020600e810180546001600160a01b031916928c169290921790915591506142e29050565b60128101546001600160a01b031661424c576012810180546001600160a01b0319166001600160a01b038a161790556142e2565b6060614257816113b9565b601283015481519192506001600160a01b031690829060009061427c5761427c615090565b60200260200101906001600160a01b031690816001600160a01b031681525050601b60006142a9836118e7565b6001600160a01b03908116825260208201929092526040016000206012810180546001600160a01b031916928c16929092179091559150505b6001600160a01b038881166000908152601c6020526040902054161580159061430d575060115460ff165b1561436b5761436b8883600c80548060200260200160405190810160405280929190818152602001828054801561254457602002820191906000526020600020908154815260200190600101908083116125305750505050506145e6565b6018805490600061437b8361505f565b9091555050601f80546000908152601d6020908152604080832080546001600160a01b0319166001600160a01b038e169081179091558454908452601e909252822081905591906143cb8361505f565b91905055505061445f565b6001600160a01b038781166000908152601c60205260409020541615801590614401575060115460ff165b1561445f5761445f8782600d80548060200260200160405190810160405280929190818152602001828054801561254457602002820191906000526020600020908154815260200190600101908083116125305750505050506145e6565b80601960008282546144719190614f04565b90915550505b5060019695505050505050565b6000805481906001600160a01b0316331461449e57600080fd5b5050600a829055600b8190559091565b6000546001600160a01b031633146144c557600080fd5b6001600160a01b0381166144d857600080fd5b600080546040516001600160a01b03808516939216917f8be0079c531659141344cd1fd0a4f28419497f9722a3daafe3b4186f6b6457e091a3600080546001600160a01b0319166001600160a01b0392909216919091179055565b600080546001600160a01b0316331461454b57600080fd5b50601281905590565b6000806145618385614f04565b90508381101561457057600080fd5b9392505050565b60008282111561458657600080fd5b60006145928385615048565b949350505050565b6000826145a9575060006113b3565b60006145b58385615029565b9050826145c28583614f1c565b1461457057600080fd5b60008082116145da57600080fd5b60006145928385614f1c565b60606145f3848351611322565b90506000805b83518110156147d1576000601b600085848151811061461a5761461a615090565b6020908102919091018101516001600160a01b03168252810191909152604001600020805490915060ff16801561466b575084828151811061465e5761465e615090565b6020026020010151600014155b801561467d57508054610100900460ff165b156147be5760006001600160a01b031684838151811061469f5761469f615090565b60200260200101516001600160a01b0316146147b8576146e7601054611f738785815181106146d0576146d0615090565b60200260200101518961459a90919063ffffffff16565b92508281600401541061476257828160040160008282546147089190615048565b92505081905550828160020160008282546147239190614f04565b925050819055508281600301600082825461473e9190614f04565b9250508190555082601a60008282546147579190614f04565b909155506147be9050565b600060048201819055600282018054829061477e908290614f04565b9091555050600481015460038201805460009061479c908490614f04565b90915550506004810154601a8054600090614757908490614f04565b506147d1565b50806147c98161505f565b9150506145f9565b505050505050565b82805482825590600052602060002090601f0160209004810192821561486e5791602002820160005b8382111561483f57835183826101000a81548160ff0219169083151502179055509260200192600101602081600001049283019260010302614802565b801561486c5782816101000a81549060ff021916905560010160208160000104928301926001030261483f565b505b5061487a9291506148b9565b5090565b82805482825590600052602060002090810192821561486e579160200282015b8281111561486e57825182559160200191906001019061489e565b5b8082111561487a57600081556001016148ba565b6000602082840312156148e057600080fd5b8135614570816150bc565b60008060006060848603121561490057600080fd5b833561490b816150bc565b9250602084013561491b816150bc565b9150604084013561492b816150bc565b809150509250925092565b6000806040838503121561494957600080fd5b8235614954816150bc565b946020939093013593505050565b6000806000806080858703121561497857600080fd5b8435614983816150bc565b935060208501359250604085013561499a816150bc565b9396929550929360600135925050565b6000806000606084860312156149bf57600080fd5b83356149ca816150bc565b95602085013595506040909401359392505050565b600080604083850312156149f257600080fd5b82356149fd816150bc565b9150602083013560ff81168114614a1357600080fd5b809150509250929050565b60006020808385031215614a3157600080fd5b823567ffffffffffffffff811115614a4857600080fd5b8301601f81018513614a5957600080fd5b8035614a6c614a6782614ee0565b614eaf565b80828252848201915084840188868560051b8701011115614a8c57600080fd5b600094505b83851015614ab8578035614aa4816150bc565b835260019490940193918501918501614a91565b50979650505050505050565b60006020808385031215614ad757600080fd5b823567ffffffffffffffff811115614aee57600080fd5b8301601f81018513614aff57600080fd5b8035614b0d614a6782614ee0565b80828252848201915084840188868560051b8701011115614b2d57600080fd5b600094505b83851015614ab8578035614b45816150d4565b835260019490940193918501918501614b32565b60006020808385031215614b6c57600080fd5b823567ffffffffffffffff811115614b8357600080fd5b8301601f81018513614b9457600080fd5b8035614ba2614a6782614ee0565b80828252848201915084840188868560051b8701011115614bc257600080fd5b600094505b83851015614ab8578035835260019490940193918501918501614bc7565b600060208284031215614bf757600080fd5b8135614570816150d4565b600060208284031215614c1457600080fd5b8151614570816150d4565b600060208284031215614c3157600080fd5b5035919050565b600060208284031215614c4a57600080fd5b5051919050565b60008060408385031215614c6457600080fd5b823591506020830135614a13816150d4565b60008060408385031215614c8957600080fd5b50508035926020909101359150565b6020808252825182820181905260009190848201906040850190845b81811015614cd95783516001600160a01b031683529284019291840191600101614cb4565b50909695505050505050565b6020808252825182820181905260009190848201906040850190845b81811015614cd9578351151583529284019291840191600101614d01565b6020808252825182820181905260009190848201906040850190845b81811015614cd957835183529284019291840191600101614d3b565b8e151581528d151560208201528c151560408201526102a081018c60608301528b60808301528a60a08301528960c08301528860e08301528761010083015286610120830152856101408301528461016083015283610180830152614e176101a0830184805182526020810151602083015260408101516040830152606081015160018060a01b0380821660608501526080830151608085015260a083015160a085015260c083015160c08501528060e08401511660e085015250505050565b9f9e505050505050505050505050505050565b6020808252601590820152746170726f7661646f20696e737566696369656e746560581b604082015260600190565b60208082526010908201526f706c616e20646573616374697661646f60801b604082015260600190565b60208082526012908201527173616c646f20696e737566696369656e746560701b604082015260600190565b604051601f8201601f1916810167ffffffffffffffff81118282101715614ed857614ed86150a6565b604052919050565b600067ffffffffffffffff821115614efa57614efa6150a6565b5060051b60200190565b60008219821115614f1757614f1761507a565b500190565b600082614f3957634e487b7160e01b600052601260045260246000fd5b500490565b600181815b80851115614f79578160001904821115614f5f57614f5f61507a565b80851615614f6c57918102915b93841c9390800290614f43565b509250929050565b60006145708383600082614f97575060016113b3565b81614fa4575060006113b3565b8160018114614fba5760028114614fc457614fe0565b60019150506113b3565b60ff841115614fd557614fd561507a565b50506001821b6113b3565b5060208310610133831016604e8410600b8410161715615003575081810a6113b3565b61500d8383614f3e565b80600019048211156150215761502161507a565b029392505050565b60008160001904831182151516156150435761504361507a565b500290565b60008282101561505a5761505a61507a565b500390565b60006000198214156150735761507361507a565b5060010190565b634e487b7160e01b600052601160045260246000fd5b634e487b7160e01b600052603260045260246000fd5b634e487b7160e01b600052604160045260246000fd5b6001600160a01b03811681146150d157600080fd5b50565b80151581146150d157600080fdfea26469706673582212202908d2af8957151f41d8bf5164c1b8d2a6f83f1057afb9bfb1fec68342282af264736f6c63430008070033",
    "sourcePath": "c:/Users/STC/Documents/GitHub/USDT-Binario/contracts/BinariSystem.sol",
    "compiler": {
        "name": "solc",
        "version": "0.8.7+commit.e28d00a7"
    },
    "functionHashes": {
        "ChangeTokenOTRO(address)": "96ba5363",
        "ChangeTokenPrincipal(address)": "50da983f",
        "ChangeTokenSalida(address)": "6d038a03",
        "MIN_RETIRO()": "6c529279",
        "MIN_RETIRO_interno()": "4bdcd429",
        "active(uint256)": "8033d581",
        "actualizarNetwork(address[])": "1ce7f99b",
        "addPlan(uint256)": "6999c45e",
        "addressToId(address)": "cb0e0d7d",
        "allnetwork(address[])": "7faee047",
        "api()": "d2c18e0b",
        "asignarPlan(address,uint256,address,uint256)": "ebe690bd",
        "asignarPuntosBinarios(address,uint256,uint256)": "5a090c2d",
        "basePorcientos()": "faafa907",
        "buyPlan(uint256)": "a80b223b",
        "buyValue(uint256)": "c8065ede",
        "column(address,uint256)": "15e8392b",
        "controlBinario(bool)": "9d1a5ea1",
        "controlReferidos(bool)": "d8de4064",
        "dias()": "ab6db199",
        "handLeft(address)": "55465fa5",
        "handRigth(address)": "6a88e297",
        "idToAddress(uint256)": "2a2d0c47",
        "insertionLeft(address[])": "6bf199ff",
        "insertionRigth(address[])": "42ccc234",
        "investors(address)": "6f7bc9be",
        "lastUserId()": "348d4487",
        "maxTime()": "22e67e71",
        "owner()": "8da5cb5b",
        "padre(address)": "b35f0a8f",
        "payValue(uint256)": "67583cf8",
        "personasBinary(address)": "4e929b0f",
        "plans(uint256)": "b1620616",
        "plansLength()": "26837aa8",
        "porcent()": "4728f718",
        "porcentPuntosBinario()": "c2307ee6",
        "porcientoBuy()": "ce51abb7",
        "porcientoPay()": "7e8ff94d",
        "porcientos(uint256)": "28cca719",
        "precioRegistro()": "7db9e9c6",
        "primervez(uint256)": "725fc270",
        "profit(address)": "02550e4d",
        "rate()": "2c4e722e",
        "rate2()": "f555b815",
        "rateSell()": "68b058eb",
        "redimOTRO()": "8929cbc5",
        "redimSITE01()": "78f15671",
        "redimSITE02(uint256)": "b9be8cdc",
        "redimTRX()": "cdb8bb2a",
        "registro(address,uint8)": "c14b8361",
        "setActive(uint256,bool)": "e60a955d",
        "setActiveAll(bool[])": "4dbc9d15",
        "setBase(uint256)": "38e80f68",
        "setMIN_RETIRO(uint256)": "4de1be62",
        "setMaxTime(uint256)": "98b777e7",
        "setPlans(uint256,uint256)": "9496e6f8",
        "setPlansAll(uint256[])": "4e0e3323",
        "setPorcientos(uint256,uint256)": "1e403c35",
        "setPrimeravezPorcientos(uint256,uint256)": "54822522",
        "setPuntosPorcentajeBinario(uint256)": "64417c89",
        "setRates(uint256,uint256)": "ac6af280",
        "setRetorno(uint256)": "6589fa8a",
        "setTiempo(uint256)": "f90b3f5a",
        "setTiempoUnidades(uint256)": "2748d29b",
        "setWalletApi(address)": "c510c060",
        "setWalletstransfers(address,address,address)": "e506e1c0",
        "setporcientoBuyPay(uint256,uint256)": "edc2fe29",
        "setstate()": "85338e20",
        "sisBinario()": "6657a040",
        "sisReferidos()": "7f658166",
        "tiempo()": "50188c08",
        "tokenPago()": "16a64416",
        "tokenPricipal()": "b1390426",
        "totalInvested()": "5216aeec",
        "totalInvestors()": "29b8caff",
        "totalRefRewards()": "bfe0e020",
        "transfer1()": "343bfdff",
        "transfer2()": "248c44e8",
        "transfer3()": "21adf6a4",
        "transferOwnership(address)": "f2fde38b",
        "unidades()": "4b9b8203",
        "upGradePlan(uint256)": "72c5dd34",
        "wallet1()": "1a026c96",
        "wallet2()": "0b8d0a28",
        "wallet3()": "3c918bae",
        "withdraw()": "3ccfd60b",
        "withdrawToDeposit()": "a00a8c9b",
        "withdrawable(address)": "ce513b6f",
        "withdrawableBinary(address)": "a95b4df9"
    },
    "gasEstimates": {
        "creation": {
            "codeDepositCost": "4152000",
            "executionCost": "infinite",
            "totalCost": "infinite"
        },
        "external": {
            "": "253",
            "ChangeTokenOTRO(address)": "26909",
            "ChangeTokenPrincipal(address)": "51130",
            "ChangeTokenSalida(address)": "51077",
            "MIN_RETIRO()": "2472",
            "MIN_RETIRO_interno()": "2408",
            "active(uint256)": "6392",
            "actualizarNetwork(address[])": "infinite",
            "addPlan(uint256)": "infinite",
            "addressToId(address)": "2668",
            "allnetwork(address[])": "infinite",
            "api()": "2448",
            "asignarPlan(address,uint256,address,uint256)": "infinite",
            "asignarPuntosBinarios(address,uint256,uint256)": "infinite",
            "basePorcientos()": "2471",
            "buyPlan(uint256)": "infinite",
            "buyValue(uint256)": "infinite",
            "column(address,uint256)": "infinite",
            "controlBinario(bool)": "26800",
            "controlReferidos(bool)": "26858",
            "dias()": "2450",
            "handLeft(address)": "9043",
            "handRigth(address)": "9108",
            "idToAddress(uint256)": "2612",
            "insertionLeft(address[])": "infinite",
            "insertionRigth(address[])": "infinite",
            "investors(address)": "45975",
            "lastUserId()": "2385",
            "maxTime()": "2430",
            "owner()": "2427",
            "padre(address)": "2664",
            "payValue(uint256)": "infinite",
            "personasBinary(address)": "infinite",
            "plans(uint256)": "4665",
            "plansLength()": "2468",
            "porcent()": "2364",
            "porcentPuntosBinario()": "2384",
            "porcientoBuy()": "2384",
            "porcientoPay()": "2385",
            "porcientos(uint256)": "4666",
            "precioRegistro()": "2363",
            "primervez(uint256)": "4688",
            "profit(address)": "infinite",
            "rate()": "2452",
            "rate2()": "2427",
            "rateSell()": "6624",
            "redimOTRO()": "infinite",
            "redimSITE01()": "infinite",
            "redimSITE02(uint256)": "infinite",
            "redimTRX()": "infinite",
            "registro(address,uint8)": "infinite",
            "setActive(uint256,bool)": "30826",
            "setActiveAll(bool[])": "infinite",
            "setBase(uint256)": "24647",
            "setMIN_RETIRO(uint256)": "24692",
            "setMaxTime(uint256)": "24691",
            "setPlans(uint256,uint256)": "26983",
            "setPlansAll(uint256[])": "infinite",
            "setPorcientos(uint256,uint256)": "infinite",
            "setPrimeravezPorcientos(uint256,uint256)": "infinite",
            "setPuntosPorcentajeBinario(uint256)": "24647",
            "setRates(uint256,uint256)": "48921",
            "setRetorno(uint256)": "24669",
            "setTiempo(uint256)": "24689",
            "setTiempoUnidades(uint256)": "24604",
            "setWalletApi(address)": "26887",
            "setWalletstransfers(address,address,address)": "infinite",
            "setporcientoBuyPay(uint256,uint256)": "46790",
            "setstate()": "6707",
            "sisBinario()": "2477",
            "sisReferidos()": "2422",
            "tiempo()": "infinite",
            "tokenPago()": "2473",
            "tokenPricipal()": "2405",
            "totalInvested()": "2451",
            "totalInvestors()": "2408",
            "totalRefRewards()": "2451",
            "transfer1()": "2395",
            "transfer2()": "2484",
            "transfer3()": "2440",
            "transferOwnership(address)": "30504",
            "unidades()": "2386",
            "upGradePlan(uint256)": "infinite",
            "wallet1()": "2495",
            "wallet2()": "2429",
            "wallet3()": "2471",
            "withdraw()": "infinite",
            "withdrawToDeposit()": "infinite",
            "withdrawable(address)": "infinite",
            "withdrawableBinary(address)": "infinite"
        },
        "internal": {
            "rewardReferers(address,uint256,uint256[] memory)": "infinite"
        }
    }
}